:020000040800F2
:100000004804002039010008CB100008E90F00085F
:10001000C910000881010008E91400080000000070
:100020000000000000000000000000007111000846
:100030008301000800000000ED10000873110008A3
:100040005301000853010008530100085301000840
:1000500053010008EF100008530100085301000885
:100060005301000853010008530100085301000820
:100070005301000853010008530100085301000810
:100080005301000853010008530100085301000800
:1000900053010008530100085301000853010008F0
:1000A00053010008530100085301000853010008E0
:1000B00053010008530100085301000853010008D0
:1000C00053010008530100085301000853010008C0
:1000D00053010008530100085301000853010008B0
:1000E00053010008530100085301000853010008A0
:1000F00053010008000000005301000853010008EC
:10010000530100085301000853010008530100087F
:1001100053010008530100085301000800000000CB
:1001200053010008DFF80CD000F018F80048004731
:100130000D1500084804002006488047064800477F
:10014000FEE7FEE7FEE7FEE7FEE7FEE7FEE7FEE787
:10015000FEE7FEE7F911000825010008064C074DEF
:1001600006E0E06840F0010394E807009847103487
:10017000AC42F6D3FFF7DAFF5C1500087C150008E7
:10018000FEE7704731B500F0EBF8044600F0E8F800
:100190000099001B8842F9D338BD00002DE9F84FC3
:1001A000DFF880B100234FF0010C4FF0030A4FF04D
:1001B0000F090BF1040EAEE00CFA03F614EA060286
:1001C00070D04C68022C01D0122C11D1DC0800EB4D
:1001D00084073C6A5D07ED0E09FA05F824EA080475
:1001E000D1F8108008FA05F848EA0408C7F820801A
:1001F00007685D0091F804800AFA05F408F0030826
:10020000A74308FA05F848EA0708C0F800804F68D5
:10021000012F05D0022F03D0112F01D0122F11D1A1
:100220008768D1F80C80A74308FA05F848EA070860
:10023000C0F808804768B7430E79C6F300169E40A1
:100240003E434660C668A6438C68AC403443C460F5
:100250004C68E4005ED5344C256845F00105256006
:10026000246823F0030504F0010400942F4C2E1998
:10027000B4689D072F0F09FA07F5AC432C4DA8422F
:1002800001D100251FE02B4DA84201D101251AE024
:10029000294DA84201D1022515E0284DA84202D1DE
:1002A000032510E036E0264DA84201D104250AE0DE
:1002B000244DA84201D1052505E0234DA84201D1D6
:1002C000062500E00725BD402543B560DBF800406A
:1002D0005D464E689443F60300D514432C60DEF867
:1002E000004075464E689443B60300D514432C6015
:1002F0000C4D08352C684E689443F60200D5144323
:100300002C60084D0C352C684E689443B60200D51D
:1003100014432C605B1C0A681446DA407FF44CAF2F
:10032000BDE8F88F00040140203802400000014081
:10033000000002400004024000080240000C02409D
:1003400000100240001402400018024042694A4076
:10035000426170470AB1816170470904FBE7000000
:100360000148006870470000000000200248016852
:10037000491C0160704700000000002010B50320F8
:1003800000F098F8002000F005F800F017F80020C1
:1003900010BD000010B5044607484FF47A7100689C
:1003A000B0FBF1F000F0B3FD00222146501E00F03A
:1003B00061F8002010BD000004000020264808B5A8
:1003C000016841F000410160016801F000410091C5
:1003D000011F0A6842F001020A60096801F0010188
:1003E0000091016841F080510160006800F0805088
:1003F0000090072000F05EF8002211466FF00B001D
:1004000000F038F8002211466FF00A0000F032F8D0
:10041000002211466FF0090000F02CF8002211466E
:10042000501F00F027F800221146101F00F022F89C
:1004300000221146901E00F01DF800221146501EA9
:1004400000F018F800221146052000F013F8BDE86E
:100450000840052000F002B82438024000F01F02D6
:10046000012191404009800000F1E020C0F8001116
:1004700070470000F0B40E4B1B680C46C3F3022318
:10048000C3F10705042D00D90425191D072901D240
:10049000002300E0DB1E012606FA05F1491E21407B
:1004A00099409E40761E16403143F0BC00F00EBECF
:1004B0000CED00E0064900F0070208684FF6FF0364
:1004C000184040EA0220034A1043086070470000C9
:1004D0000CED00E00000FA052DE9F047DFF8BC81E3
:1004E00005460E46D8F8000000F00100B04214D2D4
:1004F000012E05D1D8F8001041F00401C8F8001011
:10050000D8F8001021F001013143C8F80010D8F8E4
:10051000000000F00100B04271D12878604C8007E3
:1005200005D52068A96820F0F000084320602878ED
:10053000C00771D05A4A5A4B69680120083A2C33D7
:10054000022910D003292ED001292FD05FEA40279D
:1005500097FAA7FCBCFA8CFC4CF0200C5FEA5C1C00
:1005600004D0126803E04FF40037F1E71A6897FAF5
:10057000A7F3B3FA83F303F01F039840024262D05B
:10058000206820F0030008432060FFF7E9FE696857
:10059000074641F28830022910D003291CD00129D6
:1005A000814626D034E04FF00077D1E70227CFE72D
:1005B000FFF7D6FEC11B494501D926E081462068D8
:1005C000C0F381000228F3D126E000BFFFF7C8FE88
:1005D000C11B494501D918E081462068C0F381005C
:1005E0000328F3D118E000BFFFF7BAFEC11B49454D
:1005F0000BD82068C0F381000128F5D10CE022E07F
:10060000FFF7AEFEC11B494502D90320BDE8F087C4
:10061000206810F00C0FF3D1D8F80010404601F01C
:100620000101B14211D9012E03D1016841F0040149
:100630000160016821F0010131430160006800F0B0
:100640000100B04201D00120E0E72878400705D53D
:100650002068E96820F4E0600843206028780007FB
:1006600006D52068296920F4605040EAC100206066
:1006700000F052F82168F02292FAA2F201F0F001A3
:10068000B2FA82F2D140074A515CC840064908607C
:100690000020FFF77FFE0020B8E70000003C02408A
:1006A0000838024041150008040000200148006895
:1006B00070470000040000200848094900680968E4
:1006C0004FF4E06292FAA2F201F4E061B2FA82F22F
:1006D000D140044A515CC84070470000040000202B
:1006E000083802405115000808480949006809689F
:1006F0004FF4605292FAA2F201F46051B2FA82F21F
:10070000D140044A515CC8407047000004000020FA
:1007100008380240511500081E4A116801F00C000B
:10072000042813D0082813D00C2813D0101F0068F9
:1007300000F460414FF4604090FAA0F0B0FA80F00D
:10074000C1404FF40040491C884070471248704730
:10075000124870474FF4701393FAA3F301F470102A
:10076000B3FA83F3D8400E4B01F440011268185CD1
:100770004FF4400393FAA3F3B3FA83F3D940491C2F
:10078000D20301D5054A00E0034A5043B0FBF1F023
:1007900070470000083802400024F40000127A007C
:1007A000381500082DE9F84F07460078FB4EFC4D40
:1007B000C0074FF0010428D0F848083001684FF412
:1007C0000038C1F38101022907D00168C1F381011A
:1007D00003291BD10068C00318D598FAA8F0B0FA15
:1007E00080F040F02000400901D0306800E0286827
:1007F00098FAA8F1B1FA81F101F01F0104FA01F1B0
:1008000008425CD0786800287BD058E078680128DE
:100810000AD008B1052811D0306820F4803030604B
:10082000306820F4802002E0306840F4803030608E
:10083000786828B3FFF794FD81460BE0306840F4F8
:1008400080203060F0E700BFFFF78AFDA0EB0900D1
:10085000642872D898FAA8F0B0FA80F040F020002E
:10086000400901D0306800E0286898FAA8F1B1FA90
:1008700081F101F01F0104FA01F10842E4D01EE009
:10088000FFF76EFD814605E0FFF76AFDA0EB09006A
:100890006428DED898FAA8F0B0FA80F040F0200082
:1008A000400901D0306800E0286898FAA8F1B1FA50
:1008B00081F101F01F0104FA01F10842E4D1387816
:1008C000DFF8E08280074FF0000B4FF002095FD5A0
:1008D000B24808300168C1F38101012907D00168DD
:1008E000C1F3810103291CD10068C00319D499FA0E
:1008F000A9F0B0FA80F040F02000400902D0306842
:1009000001E086E0286899FAA9F1B1FA81F101F0D5
:100910001F0104FA01F108422BD0F868012878D1B0
:1009200027E0F868A8B394FAA4F0B0FA80F048F889
:100930002040FFF715FD824606E066E1FFF710FD57
:10094000A0EB0A00022884D899FAA9F1B1FA81F142
:1009500041F02001490901D0316800E0296899FA85
:10096000A9F0B0FA80F000F01F0004FA00F0014294
:10097000E4D08A48001D01684FF4F85393FAA3F3BA
:100980003A69B3FA83F321F4F8519A4011430160B4
:1009900025E0FFE794FAA4F1B1FA81F148F821B01B
:1009A000FFF7DEFC824605E0FFF7DAFCA0EB0A0069
:1009B0000228C8D899FAA9F0B0FA80F040F02000D7
:1009C000400901D0306800E0286899FAA9F1B1FA2D
:1009D00081F101F01F0104FA01F10842E4D13878F5
:1009E0004FF4007AC0067CD56C480830006810F0DF
:1009F0000C0F0FD0B9694FF48070002972D090FAB3
:100A0000A0F0B0FA80F048F82040FFF7A9FC009071
:100A10007EE087E09AFAAAF0B0FA80F040F0200079
:100A2000400901D0306800E028689AFAAAF1B1FACA
:100A300081F101F01F0104FA01F1084202D0B86906
:100A400000286FD05548396A001D006800F46040E6
:100A500081421AD9084600F04BFB002862D14F486A
:100A6000001D01683A6A21F4604111430160016888
:100A70004FF07F4393FAA3F3FA69B3FA83F321F0BB
:100A80007F419A401143016018E04448001D02680C
:100A900022F460420A43026001684FF07F4393FAF8
:100AA000A3F3FA69B3FA83F321F07F419A4011432B
:100AB0000160386A00F01CFB0028CFD14FF4604180
:100AC00091FAA1F1386AB1FA81F1C8404FF40041BE
:100AD000401C8140314808300068F02200F0F000EE
:100AE00001E070E040E092FAA2F2B2FA82F2D04065
:100AF0002D4A105CC1402D4801600020FFF74AFCE0
:100B000061E000BFFFF72CFC0099401A02287CD856
:100B10009AFAAAF0B0FA80F040F02000400902D022
:100B2000306801E0BCE128689AFAAAF1B1FA81F1D3
:100B300001F01F0104FA01F10842E3D01748001D3B
:100B400001683A6A21F460411143016001684FF085
:100B50007F4393FAA3F3FA69B3FA83F321F07F4159
:100B60009A40114301602EE090FAA0F0B0FA80F0B4
:100B700048F820B0FFF7F4FB009005E0FFF7F0FB2A
:100B80000099401A0228C2D89AFAAAF0B0FA80F066
:100B900040F0200040090BD030680AE000380240E5
:100BA000343802400000474241150008040000208C
:100BB00028689AFAAAF1B1FA81F101F01F0104FA4A
:100BC00001F10842DAD13878000753D5786948B383
:100BD00094FAA4F0B0FA80F008EB8000C0F88046E8
:100BE000FFF7BEFB009005E0FFF7BAFB0099401A43
:100BF00002288CD899FAA9F0B0FA80F040F04000B1
:100C0000B4EB501F02D1306801E08EE0286899FAF9
:100C1000A9F1B1FA81F101F01F0104FA01F21042C9
:100C2000E2D027E094FAA4F1B1FA81F108EB810156
:100C3000C1F880B6FFF794FB009005E0FFF790FB4A
:100C40000099401A022870D899FAA9F0B0FA80F0F9
:100C500040F04000B4EB501F01D1306800E028683C
:100C600099FAA9F1B1FA81F101F01F0104FA01F238
:100C70001042E3D1387840077BD59B484FF00009FC
:100C80000068C0000AD49848016841F080510160B2
:100C900000684FF0010900F080500090934801680F
:100CA000C90511D4016841F480710160FFF758FB58
:100CB000009005E0FFF754FB0099401A642834D8EF
:100CC0008A480068C005F5D5B86801280AD008B17F
:100CD000052811D0286820F480702860286820F446
:100CE000806002E0286840F480702860B86848B3EB
:100CF000FFF736FB00900DE0286840F48060286024
:100D0000F0E700BFFFF72CFB0099411A41F2883051
:100D100081420AD89AFAAAF0B0FA80F040F0400076
:100D2000B4EB501F02D1306801E095E028689AFAD0
:100D3000AAF1B1FA81F101F01F0104FA01F21042A7
:100D4000E0D022E0FFF70CFB009007E0FFF708FB84
:100D50000099411A41F2883081427DD89AFAAAF06E
:100D6000B0FA80F040F04000B4EB501F02D1306880
:100D700001E012E028689AFAAAF1B1FA81F101F0D3
:100D80001F0104FA01F21042E0D1B9F1000F04D0C2
:100D90005548016821F080510160786AE8B3DFF8B6
:100DA0004891A9F11C09D9F80010C1F38101032968
:100DB00076D002284FF080714FF0007A58460BD061
:100DC00091FAA1F1B1FA81F148F82100FFF7C8FAD0
:100DD000B046074656466DE04FF0807191FAA1F19A
:100DE000B1FA81F18A0042495050FFF7B9FAB3468F
:100DF0008046564606E000BFFFF7B2FAA0EB0800B7
:100E0000022854D896FAA6F0B0FA80F040F02000FC
:100E1000400903D0DBF8000001E061E0286896FAA1
:100E2000A6F1B1FA81F101F01F0104FA01F10842C3
:100E3000E2D1D7E90A103A6BD9F80030014323F424
:100E40007D031A431143C9F800104FF0807090FAE7
:100E5000A0F0B0FA80F000E029E0810024480C50B6
:100E6000FFF77EFA074604E0FFF77AFAC01B022874
:100E70001DD896FAA6F0B0FA80F040F020004009A4
:100E800002D0DBF8000000E0286896FAA6F1B1FA7B
:100E900081F101F01F0104FA01F10842E4D01FE0E2
:100EA00020E000BFFFF75CFAC01B022802D9032034
:100EB000BDE8F88F96FAA6F0B0FA80F040F0200076
:100EC000400902D0D8F8000000E0286896FAA6F1A0
:100ED000B1FA81F101F01F0104FA01F10842E1D1F8
:100EE0000020E5E70120E3E72438024000700040DD
:100EF000000047424FF0E0210428086903D020F0A9
:100F000004000861704740F00400FAE7704710B52C
:100F1000401EB0F1807F01D3012010BD4FF0E024CE
:100F200060610F21601700F0D1F80020A061072058
:100F30002061002010BD10B5FFF7E8FF10BD70B5AF
:100F4000040004D094F83900002510B106E0012017
:100F500070BD84F83850204600F020F8022084F854
:100F600039002068C16821F40051C160204600F0BA
:100F70006BF92068016921F49041016120684169A1
:100F800021F02A0141612068C16841F40051C1602B
:100F9000E563012084F83900002070BD00B50068C9
:100FA0000E4987B0884216D10D48016841F40031DE
:100FB00001600068694600F4003005900C20009044
:100FC000022001900120029003200390072004904A
:100FD0000448FFF7E3F807B000BD000000440040FC
:100FE0002438024000000240FEE7000030B51F48F0
:100FF00087B0016841F004010160016801F004015B
:101000000591016841F020010160016801F02001B3
:101010000591016841F001010160016801F00101E1
:101020000591016841F0020101600068104D00F077
:1010300002000590002220212846FFF78BF94FF48B
:10104000005000900B480024CDE9010469460A488D
:10105000FFF7A4F8202000900120CDE901046946A3
:1010600028460394FFF79AF807B030BD1C380240B9
:101070000000024000001110000802400D4810B5A9
:101080000B4901604FF4E1314160002181600C2285
:10109000C160C0E904128161C161FFF750FF0028FF
:1010A00005D0BDE81040422103A000F01EBA10BDDB
:1010B00000440040080000202E2E2F5372632F752D
:1010C000736172742E630000FEE770470907090E12
:1010D000002806DA00F00F0000F1E02080F8141D6F
:1010E000704700F1E02080F80014704770477047A7
:1010F00038B51C49002309681B4A11F0F00F23D1B1
:1011000018491C310C68E500184C03D5216801F41E
:10111000C0540EE00D6845F080550D600D6805F077
:101120008055009524680D6804F4C05425F080555E
:101130000D60B4F5C05F07D1B0F5404F04D1106821
:10114000012340F004001060106820F001001843F3
:101150001060106800F00100984201D0012038BDF5
:10116000002038BD08380240003C024000700040BA
:10117000704710B5FFF7FAF8BDE81040FFF7DBBE87
:101180001C4810B5016892B021F4C05141F40061CF
:10119000016001210391022010210090002404919C
:1011A000CDE9090480040B9000010C906846FFF71C
:1011B000F9FA00B1FEE70F200D900320CDE90E04EF
:1011C000109401210DA81194FFF786F900B1FEE7F4
:1011D000FFF76CFA4FF47A71B0FBF1F0FFF797FE6E
:1011E0000420FFF787FE00221146501EFFF742F948
:1011F00012B010BD007000400F48016841F48071CA
:1012000001600D4908310A680C4B1A400A600268F7
:101210000B4B1A400260026822F4802202600868C8
:1012200020F47D0008600020091D086005494FF08A
:101230000060086070470000003802400CC0FF8862
:10124000FEFFFEEE08ED00E02DE9F04104460068E7
:101250000169E26821F44051114301612169A068EC
:10126000E26908436169114308432168CA6849F289
:101270000C639A430243CA6020684169A26921F461
:10128000407111434161E1696425B1F5004F954812
:1012900021684FF032083DD081427AD1FFF724FA1D
:1012A00000EBC00101EB001061688900B0FBF1F6B2
:1012B000FFF71AFA00EBC00101EB0010616889002A
:1012C000B0FBF1F0B0FBF5F06FF01801484306EB0E
:1012D000800108EB0110B0FBF5F000F0F006FFF71D
:1012E00003FA00EBC00101EB001061688900B0FB5C
:1012F000F1F0B0FBF5F006EB0016FFF7F5F900EBA7
:10130000C00101EB001061688900B0FBF1F7FFF745
:10131000EBF9D0E081423DD1FFF7E6F900EBC001E7
:1013200001EB001061684900B0FBF1F0B0FBF5F093
:101330000601FFF7D9F900EBC00101EB001061686D
:101340004900B0FBF1F7FFF7CFF900EBC00101EB6B
:10135000001061684900B0FBF1F0B0FBF5F06FF0F0
:101360001801484307EB800108EBC100B0FBF5F022
:1013700000F0F80006EB4006FFF7B6F900EBC001FD
:1013800001EB001061684900B0FBF1F7FFF7ACF921
:101390003CE055E0FFF790F900EBC00101EB0010D5
:1013A00061684900B0FBF1F0B0FBF5F00601FFF712
:1013B00083F900EBC00101EB001061684900B0FB4C
:1013C000F1F7FFF779F900EBC00101EB001061685C
:1013D0004900B0FBF1F0B0FBF5F06FF018014843A5
:1013E00007EB800108EBC100B0FBF5F000F0F8005E
:1013F00006EB4006FFF760F900EBC00101EB0010BF
:1014000061684900B0FBF1F7FFF756F900EBC00146
:1014100001EB001061684900B0FBF1F0B0FBF5F0A2
:101420006FF01801484307EB800108EBC100B0FBE7
:10143000F5F000F00700216830448860BDE8F081D5
:10144000FFF73AF900EBC00101EB00106168890079
:10145000B0FBF1F6FFF730F900EBC00101EB001033
:1014600061688900B0FBF1F0B0FBF5F06FF0180196
:10147000484306EB800108EB0110B0FBF5F000F0EB
:10148000F006FFF719F900EBC00101EB00106168ED
:101490008900B0FBF1F0B0FBF5F006EB0016FFF7AA
:1014A0000BF900EBC00101EB001061688900B0FB93
:1014B000F1F7FFF701F900EBC00101EB00106168E3
:1014C0008900B0FBF1F0B0FBF5F06FF01801484374
:1014D00007EB800108EB0110B0FBF5F000F00F0006
:1014E000A9E7000000380140FEE7FEE702E008C877
:1014F000121F08C1002AFAD170477047002001E08E
:1015000001C1121F002AFBD170470000FEF736FF11
:10151000FFF736FEFFF76AFDFFF7B0FD054C4FF40D
:10152000FA7520212046FEF711FF2846FEF72AFE15
:10153000F7E7000000000240030406080C10182022
:10154000300000000000000000010203040607084C
:101550000900000000010203040000007C150008DF
:101560000000002008000000EC14000884150008AA
:101570000800002040040000FC14000800000000E7
:0415800068FF1F00E1
:0400000508000125C9
:00000001FF
