:020000040800F2
:10000000A8040020390100087F160008A115000887
:100010007D160008210200082F1B000800000000C8
:10002000000000000000000000000000251700088C
:100030002302000800000000A1160008271700088E
:100040005301000853010008530100085301000840
:1000500053010008A31600085301000853010008CB
:100060005301000853010008530100085301000820
:100070005301000853010008530100085301000810
:100080005301000853010008530100085301000800
:1000900053010008530100085301000853010008F0
:1000A00053010008530100085301000853010008E0
:1000B00053010008530100085301000853010008D0
:1000C00053010008530100085301000853010008C0
:1000D00053010008530100085301000853010008B0
:1000E00053010008530100085301000853010008A0
:1000F00053010008000000005301000853010008EC
:10010000530100085301000853010008530100087F
:1001100053010008530100085301000800000000CB
:1001200053010008DFF80CD000F02EF8004800471B
:10013000E11C0008A8040020064880470648004744
:10014000FEE7FEE7FEE7FEE7FEE7FEE7FEE7FEE787
:10015000FEE7FEE7AD1700082501000830B50B46A5
:10016000014600202022012409E021FA02F59D42E7
:1001700005D303FA02F5491B04FA02F52844151EBB
:10018000A2F10102F1DC30BD064C074D06E0E0684B
:1001900040F0010394E8070098471034AC42F6D3CE
:1001A000FFF7C4FF541D0008741D0008F8B50026B1
:1001B0000446009600680168C94349062AD581684B
:1001C00041F001018160144814490068B0FBF1F06E
:1001D00000EB400000E0401E00900028FBD100F042
:1001E00035FB054611E000BF00F030FB401B022844
:1001F0000BD9E06C40F01000E064206D40F001008D
:10020000206584F848600120F8BD20680068C0437C
:100210004006E9D40020F8BD0800002040420F004D
:10022000FEE77047F8B50024009490F84820254672
:10023000012A12D0012280F848204A681F23072A89
:100240000DD207683E6C521E02EB820293409E4321
:100250000B6893401E433E6435E00220F8BD0D2A32
:100260000BD20668F76BD21F02EB820293409F43CA
:100270000B6893401F43F76325E0132A0BD20668EF
:10028000B76B0D3A02EB820293409F430B68934099
:100290001F43B76317E00668192A0AD2776B133A2F
:1002A00002EB820293409F430B6893401F437763A6
:1002B00009E0376B193A02EB820293409F430B68C7
:1002C00093401F4337630A6807230A2A0AD2066845
:1002D000776902EB420293409F438B6893401F4330
:1002E000776125E0142A0BD207683E690A3A02EBCF
:1002F000420293409E438B6893401E433E6117E049
:1003000007681D2A0AD8FE68143A02EB420293409D
:100310009E438B6893401E43FE6009E0FE6D1E3ACB
:1003200002EB420293409E438B6893401E43FE655E
:100330000A68102A01D0112A17D10E4A13681B022D
:1003400013D4136843F400031360096810290CD117
:1003500009490A4A0968B1FBF2F101EB8101490040
:1003600000E0491E00910029FBD180F8485020464A
:10037000F8BD0000042701400800002040420F00A3
:100380000068806D70470000F8B504004FF000056C
:1003900003D0E06C002610B110E00120F8BD266506
:1003A0005B4884F84860016841F001010160006821
:1003B00000F001000090204600F0B4F8E06CC006A8
:1003C00078D4E06C20F4885040F00200E06451489A
:1003D0000168626821F44031114301606169E0689D
:1003E0004FF40073084393FAA3F3E26BB3FA83F379
:1003F000216A9A4011430843022191FAA1F1626AED
:10040000B1FA81F102FA01F10843616B102902D0BF
:10041000A36B19430843236819684FF48077C943D5
:10042000490629D5A169D4F81CC00843A168D4F8AD
:1004300010E041EA0C01BE450CD0BEF1010F09D01D
:100440004FF0000C41EA0C01D4F82CC0BCF1010FB4
:1004500002D00AE0BC46F5E76AB3E26C42F0200243
:10046000E264226D42F0010222655A68DFF8A8C0FA
:1004700002EA0C020A435A6021688A68274B1A4034
:1004800002438A602169B94224D0012922D021681F
:100490000A6B22F0F8720A6321688968204A1140C9
:1004A000814227D12665E06C20F0020040F0010077
:1004B000E0642AE028E0FFE74FF4604C226B9CFAEE
:1004C000ACFCBCFA8CFC521E02FA0CF20A4342F459
:1004D0000061CAE721680A6B4FF0F87722F0F873E1
:1004E000A26A97FAA7F7B7FA87F7521EBA401343E2
:1004F0000B63D1E7E06C20F0020040F01000E064F4
:10050000206D40F00100206501252846F8BD00005F
:100510002038024004270140FF16FCFC89F1FFC08F
:10052000FEFF80BF00B500680C4987B0884212D139
:100530000B48016841F4007101600068694600F4ED
:10054000007005900120009003200190002002908F
:10055000044800F0A3F807B000BD000000240140EB
:1005600020380240000002402DE9F04104460068B6
:100570000D4681684FF0000749050BD58068C0051E
:1005800008D5E06C40F02000E06484F84870012059
:10059000BDE8F08100F05AF906460FE0681C0DD066
:1005A00025B100F053F9801BA84207D9E06C40F058
:1005B0000400E06484F848700320E9E720680068DC
:1005C0008007EBD5A06918B921686FF012000860A8
:1005D000E06C40F40070E0642068816811F0405FD6
:1005E00013D1616A89B9016B11F0F87F02D080687C
:1005F00040050AD4E06C20F48070E064E06CC00434
:1006000003D4E06C40F00100E0640020C0E710B5C6
:10061000044690F84800012822D0012084F84800C0
:100620002046FFF7C3FD00281BD1E16C40F20162B8
:10063000914341F48071E16421684A68520505D50F
:10064000E26C22F4005242F48052E264E26CD30481
:100650004FF0000206D5236D23F00603236502E068
:10066000022010BD226584F848206FF022020A6043
:1006700021688A6812F0405FF3D18A6842F08042B4
:100680008A6010BD31B500F0E1F8044600F0DEF8F4
:100690000099001B8842F9D338BD00002DE9F84FBE
:1006A000DFF880B100234FF0010C4FF0030A4FF048
:1006B0000F090BF1040EAEE00CFA03F614EA060281
:1006C00070D04C68022C01D0122C11D1DC0800EB48
:1006D00084073C6A5D07ED0E09FA05F824EA080470
:1006E000D1F8108008FA05F848EA0408C7F8208015
:1006F00007685D0091F804800AFA05F408F0030821
:10070000A74308FA05F848EA0708C0F800804F68D0
:10071000012F05D0022F03D0112F01D0122F11D19C
:100720008768D1F80C80A74308FA05F848EA07085B
:10073000C0F808804768B7430E79C6F300169E409C
:100740003E434660C668A6438C68AC403443C460F0
:100750004C68E4005ED5344C256845F00105256001
:10076000246823F0030504F0010400942F4C2E1993
:10077000B4689D072F0F09FA07F5AC432C4DA8422A
:1007800001D100251FE02B4DA84201D101251AE01F
:10079000294DA84201D1022515E0284DA84202D1D9
:1007A000032510E036E0264DA84201D104250AE0D9
:1007B000244DA84201D1052505E0234DA84201D1D1
:1007C000062500E00725BD402543B560DBF8004065
:1007D0005D464E689443F60300D514432C60DEF862
:1007E000004075464E689443B60300D514432C6010
:1007F0000C4D08352C684E689443F60200D514431E
:100800002C60084D0C352C684E689443B60200D518
:1008100014432C605B1C0A681446DA407FF44CAF2A
:10082000BDE8F88F0004014020380240000001407C
:10083000000002400004024000080240000C024098
:1008400000100240001402400018024001480068F5
:10085000704700000400002002480168491C016044
:10086000704700000400002010B5032000F098F845
:10087000002000F005F800F017F8002010BD00007F
:1008800010B5044607484FF47A710068B0FBF1F0E8
:1008900000F0B3FD00222146501E00F061F8002058
:1008A00010BD000008000020264808B5016841F08E
:1008B00000410160016801F000410091011F0A68D8
:1008C00042F001020A60096801F00101009101682B
:1008D00041F080510160006800F0805000900320DA
:1008E00000F05EF8002211466FF00B0000F038F8BF
:1008F000002211466FF00A0000F032F80022114683
:100900006FF0090000F02CF800221146501F00F093
:1009100027F800221146101F00F022F8002211468D
:10092000901E00F01DF800221146501E00F018F82D
:1009300000221146052000F013F8BDE8084005200C
:1009400000F002B82438024000F01F02012191405B
:100950004009800000F1E020C0F80011704700005D
:10096000F0B40E4B1B680C46C3F30223C3F107051A
:10097000042D00D90425191D072901D2002300E008
:10098000DB1E012606FA05F1491E214099409E40D2
:10099000761E16403143F0BC00F072BE0CED00E054
:1009A000064900F0070208684FF6FF03184040EAC6
:1009B0000220034A10430860704700000CED00E07D
:1009C0000000FA052DE9F047DFF8BC8105460E4628
:1009D000D8F8000000F00100B04214D2012E05D179
:1009E000D8F8001041F00401C8F80010D8F8001041
:1009F00021F001013143C8F80010D8F8000000F0E0
:100A00000100B04271D12878604C800705D520687C
:100A1000A96820F0F000084320602878C00771D052
:100A20005A4A5A4B69680120083A2C33022910D0DF
:100A300003292ED001292FD05FEA402797FAA7FC7F
:100A4000BCFA8CFC4CF0200C5FEA5C1C04D01268F1
:100A500003E04FF40037F1E71A6897FAA7F3B3FA07
:100A600083F303F01F039840024262D0206820F015
:100A7000030008432060FFF7E9FE6968074641F27A
:100A80008830022910D003291CD00129814626D0A4
:100A900034E04FF00077D1E70227CFE7FFF7D6FE2B
:100AA000C11B494501D926E081462068C0F3810079
:100AB0000228F3D126E000BFFFF7C8FEC11B49455D
:100AC00001D918E081462068C0F381000328F3D1E2
:100AD00018E000BFFFF7BAFEC11B49450BD82068DC
:100AE000C0F381000128F5D10CE022E0FFF7AEFE53
:100AF000C11B494502D90320BDE8F087206810F0EA
:100B00000C0FF3D1D8F80010404601F00101B142BA
:100B100011D9012E03D1016841F00401016001687F
:100B200021F0010131430160006800F00100B04292
:100B300001D00120E0E72878400705D52068E96862
:100B400020F4E060084320602878000706D520687C
:100B5000296920F4605040EAC100206000F052F89A
:100B60002168F02292FAA2F201F0F001B2FA82F2C8
:100B7000D140074A515CC840064908600020FFF791
:100B80007FFE0020B8E70000003C02400838024029
:100B9000391D000808000020014800687047000067
:100BA0000800002008480949006809684FF4E0621D
:100BB00092FAA2F201F4E061B2FA82F2D140044A60
:100BC000515CC8407047000008000020083802400F
:100BD000491D000808480949006809684FF4605237
:100BE00092FAA2F201F46051B2FA82F2D140044AC0
:100BF000515CC840704700000800002008380240DF
:100C0000491D00081E4A116801F00C00042813D089
:100C1000082813D00C2813D0101F006800F460417E
:100C20004FF4604090FAA0F0B0FA80F0C1404FF469
:100C30000040491C8840704712487047124870476E
:100C40004FF4701393FAA3F301F47010B3FA83F323
:100C5000D8400E4B01F440011268185C4FF4400379
:100C600093FAA3F3B3FA83F3D940491CD20301D515
:100C7000054A00E0034A5043B0FBF1F07047000022
:100C8000083802400024F40000366E01301D0008D0
:100C90002DE9F84F07460078FB4EFC4DC0074FF09A
:100CA000010428D0F848083001684FF40038C1F337
:100CB0008101022907D00168C1F3810103291BD1F9
:100CC0000068C00318D598FAA8F0B0FA80F040F098
:100CD0002000400901D0306800E0286898FAA8F1A7
:100CE000B1FA81F101F01F0104FA01F108425CD070
:100CF000786800287BD058E0786801280AD008B1CD
:100D0000052811D0306820F480303060306820F43D
:100D1000802002E0306840F480303060786828B38A
:100D2000FFF794FD81460BE0306840F4802030608E
:100D3000F0E700BFFFF78AFDA0EB0900642872D836
:100D400098FAA8F0B0FA80F040F02000400901D0F5
:100D5000306800E0286898FAA8F1B1FA81F101F052
:100D60001F0104FA01F10842E4D01EE0FFF76EFD16
:100D7000814605E0FFF76AFDA0EB09006428DED894
:100D800098FAA8F0B0FA80F040F02000400901D0B5
:100D9000306800E0286898FAA8F1B1FA81F101F012
:100DA0001F0104FA01F10842E4D13878DFF8E0824B
:100DB00080074FF0000B4FF002095FD5B2480830B2
:100DC0000168C1F38101012907D00168C1F38101E4
:100DD00003291CD10068C00319D499FAA9F0B0FA0C
:100DE00080F040F02000400902D0306801E086E049
:100DF000286899FAA9F1B1FA81F101F01F0104FA0A
:100E000001F108422BD0F868012878D127E0F86872
:100E1000A8B394FAA4F0B0FA80F048F82040FFF7A5
:100E200015FD824606E066E1FFF710FDA0EB0A0023
:100E3000022884D899FAA9F1B1FA81F141F0200190
:100E4000490901D0316800E0296899FAA9F0B0FA9F
:100E500080F000F01F0004FA00F00142E4D08A485C
:100E6000001D01684FF4F85393FAA3F33A69B3FAFB
:100E700083F321F4F8519A401143016025E0FFE724
:100E800094FAA4F1B1FA81F148F821B0FFF7DEFC41
:100E9000824605E0FFF7DAFCA0EB0A000228C8D87A
:100EA00099FAA9F0B0FA80F040F02000400901D092
:100EB000306800E0286899FAA9F1B1FA81F101F0EF
:100EC0001F0104FA01F10842E4D138784FF4007AA6
:100ED000C0067CD56C480830006810F00C0F0FD0AD
:100EE000B9694FF48070002972D090FAA0F0B0FA7E
:100EF00080F048F82040FFF7A9FC00907EE087E0F2
:100F00009AFAAAF0B0FA80F040F02000400901D02F
:100F1000306800E028689AFAAAF1B1FA81F101F08C
:100F20001F0104FA01F1084202D0B86900286FD00D
:100F30005548396A001D006800F4604081421AD9A2
:100F4000084600F0AFFB002862D14F48001D016841
:100F50003A6A21F460411143016001684FF07F4318
:100F600093FAA3F3FA69B3FA83F321F07F419A402D
:100F70001143016018E04448001D026822F46042F9
:100F80000A43026001684FF07F4393FAA3F3FA69C2
:100F9000B3FA83F321F07F419A4011430160386A2C
:100FA00000F080FB0028CFD14FF4604191FAA1F10D
:100FB000386AB1FA81F1C8404FF40041401C8140C9
:100FC000314808300068F02200F0F00001E070E0E5
:100FD00040E092FAA2F2B2FA82F2D0402D4A105CBE
:100FE000C1402D4801600020FFF74AFC61E000BFCE
:100FF000FFF72CFC0099401A02287CD89AFAAAF034
:10100000B0FA80F040F02000400902D0306801E0E2
:10101000BCE128689AFAAAF1B1FA81F101F01F0146
:1010200004FA01F10842E3D01748001D01683A6A4A
:1010300021F460411143016001684FF07F4393FA4E
:10104000A3F3FA69B3FA83F321F07F419A40114385
:1010500001602EE090FAA0F0B0FA80F048F820B0DD
:10106000FFF7F4FB009005E0FFF7F0FB0099401A52
:101070000228C2D89AFAAAF0B0FA80F040F0200014
:1010800040090BD030680AE0003802403438024092
:1010900000004742391D00080800002028689AFA1D
:1010A000AAF1B1FA81F101F01F0104FA01F108423D
:1010B000DAD13878000753D5786948B394FAA4F0A8
:1010C000B0FA80F008EB8000C0F88046FFF7BEFB66
:1010D000009005E0FFF7BAFB0099401A02288CD86F
:1010E00099FAA9F0B0FA80F040F04000B4EB501F3C
:1010F00002D1306801E08EE0286899FAA9F1B1FACE
:1011000081F101F01F0104FA01F21042E2D027E060
:1011100094FAA4F1B1FA81F108EB8101C1F880B62B
:10112000FFF794FB009005E0FFF790FB0099401A51
:10113000022870D899FAA9F0B0FA80F040F0400087
:10114000B4EB501F01D1306800E0286899FAA9F18A
:10115000B1FA81F101F01F0104FA01F21042E3D16A
:10116000387840077BD59B484FF000090068C000E5
:101170000AD49848016841F08051016000684FF03E
:10118000010900F08050009093480168C90511D40E
:10119000016841F480710160FFF758FB009005E0A1
:1011A000FFF754FB0099401A642834D88A48006835
:1011B000C005F5D5B86801280AD008B1052811D0B6
:1011C000286820F480702860286820F4806002E09D
:1011D000286840F480702860B86848B3FFF736FB91
:1011E00000900DE0286840F480602860F0E700BFC0
:1011F000FFF72CFB0099411A41F2883081420AD84E
:101200009AFAAAF0B0FA80F040F04000B4EB501F18
:1012100002D1306801E095E028689AFAAAF1B1FAA3
:1012200081F101F01F0104FA01F21042E0D022E046
:10123000FFF70CFB009007E0FFF708FB0099411A4D
:1012400041F2883081427DD89AFAAAF0B0FA80F053
:1012500040F04000B4EB501F02D1306801E012E0D2
:1012600028689AFAAAF1B1FA81F101F01F0104FA93
:1012700001F21042E0D1B9F1000F04D055480168E5
:1012800021F080510160786AE8B3DFF84891A9F154
:101290001C09D9F80010C1F38101032976D0022876
:1012A0004FF080714FF0007A58460BD091FAA1F1BF
:1012B000B1FA81F148F82100FFF7C8FAB0460746B5
:1012C00056466DE04FF0807191FAA1F1B1FA81F1CB
:1012D0008A0042495050FFF7B9FAB3468046564655
:1012E00006E000BFFFF7B2FAA0EB0800022854D8CE
:1012F00096FAA6F0B0FA80F040F02000400903D042
:10130000DBF8000001E061E0286896FAA6F1B1FA86
:1013100081F101F01F0104FA01F10842E2D1D7E99D
:101320000A103A6BD9F80030014323F47D031A43C5
:101330001143C9F800104FF0807090FAA0F0B0FA95
:1013400080F000E029E0810024480C50FFF77EFA8D
:10135000074604E0FFF77AFAC01B02281DD896FA68
:10136000A6F0B0FA80F040F02000400902D0DBF88F
:10137000000000E0286896FAA6F1B1FA81F101F0C8
:101380001F0104FA01F10842E4D01FE020E000BF91
:10139000FFF75CFAC01B022802D90320BDE8F88FD2
:1013A00096FAA6F0B0FA80F040F02000400902D092
:1013B000D8F8000000E0286896FAA6F1B1FA81F1A9
:1013C00001F01F0104FA01F10842E1D10020E5E734
:1013D0000120E3E72438024000700040000047424B
:1013E0004FF0E0210428086903D020F004000861D0
:1013F000704740F00400FAE7704710B5401EB0F1A6
:10140000807F01D3012010BD4FF0E02460610F21E7
:10141000601700F035F90020A0610720206100204E
:1014200010BD10B5FFF7E8FF10BD70B5040004D083
:1014300094F83900002510B106E0012070BD84F851
:101440003850204600F020F8022084F83900206847
:10145000C16821F40051C160204600F0CFF9206836
:10146000016921F4904101612068416921F02A015C
:1014700041612068C16841F40051C160E563012009
:1014800084F83900002070BD00B500680E4987B0AF
:10149000884217D10D48016841F48041016000681D
:1014A000694600F4804005904FF4C060009002202F
:1014B000019001200290032003900720049004482B
:1014C000FFF7ECF807B000BD0038014020380240BB
:1014D000000002402DE9F047044690F83900994693
:1014E0000D46012801D0222858D12DB322B394F8FB
:1014F0003800012852D0012684F838600027E763BD
:1015000094F8390022281AD05FF0120084F83900CC
:10151000A284E2844FF48058E08C4B46401EE08465
:10152000A0684FF0000240454FF08001204613D1E3
:1015300000F0B4FA08BB04E00120BDE8F0873220D7
:10154000E4E728882168C0F308004860206908B1F2
:101550006D1C08E0AD1C06E000F0A0FA68B9216837
:1015600015F8010B4860E08C0028D5D14B460022CD
:101570004021204600F092FA08B10320DDE794F8FC
:101580003900322806D084F8396000BF84F83870FA
:101590000020D2E7222084F83900F7E70220CCE7C8
:1015A000FEE700003EB5164814490024C0E90014C7
:1015B0004FF08071C0E90214046144618461C46128
:1015C00001250462C0E909451021C462C0E90D1477
:1015D000C463FEF7D9FE18B14B210AA000F0A8FAA7
:1015E000CDE90045694606480294FEF71BFE002837
:1015F00003D0552103A000F09BFA3EBD002401401A
:10160000100000202E2E2F5372632F6164632E630F
:1016100000000000054808B5016841F001010160C3
:10162000006800F00100009008BD00001C38024076
:101630000D4810B50B4901604FF41651416000216F
:1016400081600C22C160C0E904128161C161FFF7B1
:10165000ECFE002805D0BDE81040422103A000F0B8
:1016600067BA10BD00380140640000202E2E2F53B1
:1016700072632F75736172742E630000FEE770470A
:101680000907090E002806DA00F00F0000F1E0203B
:1016900080F8141D704700F1E02080F800147047B6
:1016A0007047704738B51C49002309681B4A11F080
:1016B000F00F23D118491C310C68E500184C03D5F4
:1016C000216801F4C0540EE00D6845F080550D60AE
:1016D0000D6805F08055009524680D6804F4C05429
:1016E00025F080550D60B4F5C05F07D1B0F5404FCF
:1016F00004D11068012340F004001060106820F04D
:10170000010018431060106800F00100984201D0F9
:10171000012038BD002038BD08380240003C02409E
:1017200000700040704710B5FFF796F8BDE8104014
:10173000FFF777BE1C4810B5016892B021F4C05184
:1017400041F4006101601220009001201021CDE9D8
:1017500003010024CDE906044FF42040CDE908043C
:101760006846FFF795FA00B1FEE70F20CDE90D04BA
:101770000F94109400210DA81194FFF723F900B1E4
:10178000FEE7FFF709FA4FF47A71B0FBF1F0FFF7CB
:1017900034FE0420FFF724FE00221146501EFFF7FE
:1017A000DFF812B010BD0000007000400F48016863
:1017B00041F4807101600D4908310A680C4B1A40F0
:1017C0000A6002680B4B1A400260026822F4802211
:1017D0000260086820F47D0008600020091D086090
:1017E00005494FF000600860704700000038024073
:1017F0000CC0FF88FEFFFEEE08ED00E02DE9F04191
:10180000044600680169E26821F440511143016116
:101810002169A068E26908436169114308432168AE
:10182000CA6849F20C639A430243CA60206841695E
:10183000A26921F4407111434161E1696425B1F568
:10184000004F954821684FF032083DD081427AD14F
:10185000FFF7C0F900EBC00101EB001061688900DF
:10186000B0FBF1F6FFF7B6F900EBC00101EB001099
:1018700061688900B0FBF1F0B0FBF5F06FF0180182
:10188000484306EB800108EB0110B0FBF5F000F0D7
:10189000F006FFF79FF900EBC00101EB0010616853
:1018A0008900B0FBF1F0B0FBF5F006EB0016FFF796
:1018B00091F900EBC00101EB001061688900B0FBF9
:1018C000F1F7FFF787F9D0E081423DD1FFF782F9C8
:1018D00000EBC00101EB001061684900B0FBF1F0C2
:1018E000B0FBF5F00601FFF775F900EBC00101EB65
:1018F000001061684900B0FBF1F7FFF76BF900EBEE
:10190000C00101EB001061684900B0FBF1F0B0FBD1
:10191000F5F06FF01801484307EB800108EBC100B8
:10192000B0FBF5F000F0F80006EB4006FFF752F9C7
:1019300000EBC00101EB001061684900B0FBF1F75A
:10194000FFF748F93CE055E0FFF72CF900EBC00148
:1019500001EB001061684900B0FBF1F0B0FBF5F05D
:101960000601FFF71FF900EBC00101EB00106168F1
:101970004900B0FBF1F7FFF715F900EBC00101EBEF
:10198000001061684900B0FBF1F0B0FBF5F06FF0BA
:101990001801484307EB800108EBC100B0FBF5F0EC
:1019A00000F0F80006EB4006FFF7FCF800EBC00182
:1019B00001EB001061684900B0FBF1F7FFF7F2F8A6
:1019C00000EBC00101EB001061684900B0FBF1F0D1
:1019D000B0FBF5F06FF01801484307EB800108EB0E
:1019E000C100B0FBF5F000F00700216830448860CA
:1019F000BDE8F081FFF7D6F800EBC00101EB001065
:101A000061688900B0FBF1F6FFF7CCF800EBC0018C
:101A100001EB001061688900B0FBF1F0B0FBF5F05C
:101A20006FF01801484306EB800108EB0110B0FB92
:101A3000F5F000F0F006FFF7B5F800EBC00101EBA0
:101A4000001061688900B0FBF1F0B0FBF5F006EB27
:101A50000016FFF7A7F800EBC00101EB001061686A
:101A60008900B0FBF1F7FFF79DF800EBC00101EB37
:101A7000001061688900B0FBF1F0B0FBF5F06FF089
:101A80001801484307EB800108EB0110B0FBF5F0AB
:101A900000F00F00A9E70000003801402DE9F047F1
:101AA0001D4690460E460446FEF7D0FE07465FEA06
:101AB00008004FF000094FF0010808D030E0681C22
:101AC00005D095B1FEF7C2FEC01BA8420DD8206814
:101AD000006836EA0000F2D127E0681C20D025B16A
:101AE000FEF7B4FEC01BA8421AD92068C16821F0D5
:101AF0008001C1602068C16821F02001C1602068B8
:101B0000C16821F48071C1602068416921F0010140
:101B1000416184F8398084F838900320BDE8F0876B
:101B20002068006836EA0000D7D00020F6E7FEE71C
:101B3000FEE700000FB4054B10B503A9044A029854
:101B400000F018F810BC5DF814FB0000C91C000878
:101B50000C00002002E008C8121F08C1002AFAD1B8
:101B600070477047002001E001C1121F002AFBD11D
:101B7000704700002DE9FF4F89B09B4604460025C1
:101B800006E025280BD05A460B999047641C6D1C23
:101B900020780028F5D10DB02846BDE8F08F002749
:101BA000B8460122474900E0074314F8013F203BB3
:101BB00002FA03F00842F7D120782E2819D114F840
:101BC000010F47F004072A280ED06FF02F0220786B
:101BD000A0F1300109290CD808EB880102EB410182
:101BE00000EB0108641CF2E70A98641C50F8048BAF
:101BF0000A9020780028CED0642808D0692806D022
:101C000075281ED05A460B9990476D1C58E00A99CA
:101C10004FF00A0901C90A91002802DA40422D2139
:101C200002E0390504D52B218DF82010012103E0B5
:101C3000F90704D02021F7E78A4608AE0DE000211D
:101C4000FAE70A994FF00A0901C90A91F7E74946EC
:101C5000FEF784FA303106F8011D0028F7D1ADEB0C
:101C6000060000F12009780701D44FF00108C845AB
:101C700002DDA8EB090000E000208046002706E016
:101C800008A85A46C05D0B9990476D1C7F1C5745AC
:101C9000F6DB04E030205A460B9990476D1CB8F1F2
:101CA0000001A8F10108F5DC05E016F8010B5A4621
:101CB0000B9990476D1CB9F10001A9F10109F4DC01
:101CC000641C65E70928010013B50A23012269464F
:101CD0000248FFF7FFFB00981CBD000064000020D5
:101CE000FEF7C2FDFFF726FDFFF794FCFFF75AFC55
:101CF000FFF79EFC0A4C40F6B8350A48FEF787FC11
:101D000064210848FEF730FC0648FEF739FB81B233
:101D1000218005A0FFF70EFF2846FEF7B3FCECE795
:101D200000000020100000202564200D0A000000A3
:101D3000030406080C10182030000000000000000A
:101D40000001020304060708090000000001020365
:101D500004000000741D00080000002010000000B6
:101D6000541B0008841D0008100000209804000087
:101D7000641B0008000000000000000068FF1F0056
:041D8000000000005F
:0400000508000125C9
:00000001FF
