:020000040800F2
:10000000780400203901000827160008B9150008F7
:1000100025160008C1060008D71A000800000000D5
:10002000000000000000000000000000CD160008E5
:10003000C30600080000000049160008CF1600089B
:100040005301000853010008530100085301000840
:100050005301000853010008530100085301000830
:100060005301000853010008530100085301000820
:100070005301000853010008530100085301000810
:100080005301000853010008530100085301000800
:1000900053010008530100085301000853010008F0
:1000A00053010008530100085301000853010008E0
:1000B00053010008530100085301000853010008D0
:1000C00053010008530100085301000853010008C0
:1000D00053010008530100085301000853010008B0
:1000E00053010008530100085301000853010008A0
:1000F00053010008000000005301000853010008EC
:10010000530100085301000853010008530100087F
:1001100053010008530100085301000800000000CB
:1001200053010008DFF80CD000F02AFA004800471D
:10013000E923000878040020064880470648004765
:10014000FEE7FEE7FEE7FEE7FEE7FEE7FEE7FEE787
:10015000FEE7FEE7551700082501000800F0004201
:1001600030F000400AD0C10D01F56071C0F31600F7
:1001700042EA0151C208400711437047002001467E
:10018000704730B50B46014600202022012409E0CB
:1001900021FA02F59D4205D303FA02F5491B04FA40
:1001A00002F52844151EA2F10102F1DC30BD2DE953
:1001B000F05F0546002092469B46884606468146EB
:1001C00040241BE0284641464746224600F0F9F904
:1001D00053465A46C01A914110D31146184622463A
:1001E00000F0E0F92D1A67EB01084F462246012086
:1001F000002100F0D7F917EB00094E41201EA4F1B1
:100200000104DFDC484631462A464346BDE8F09FFC
:100210002DE9FE4F804681EA0300C00F0C46009096
:1002200021F0004123F00045B8EB0200A94105D2BE
:100230004046214690461C460B46024623F00040AD
:10024000104347D0270DC7F30A00C3F30A510290A9
:10025000401A019040286BDAC3F3130040F4801B6E
:100260000098924620B10023D2EB030A63EB0B0BFC
:1002700001985946C0F14002504600F093F90646F5
:100280000D4650465946019A00F0ABF910EB0800B4
:100290006141002487EA115284EAE7731A4340D08F
:1002A000009A62B3019A012A4FEA075215DC001B3B
:1002B00061EB02014FF0004202EA0752CDE9004231
:1002C000001C41F5801132462B4600F0ABF903B01B
:1002D000BDE8F08F40462146F9E7001B61EB0201C3
:1002E000001C41F5801300185B412018A2F500178F
:1002F00047EB030140EAD570B6196D4111E06D0876
:100300004FEA360645EAC0754FEA0752001B61EB1B
:100310000201001C41F5801149084FEA3000001924
:10032000514132462B4603B0BDE8F04F00F06BB9A7
:100330000098012240000023D0EB020263EBE0733F
:10034000009821464FEAE074B8EB000061EB04012D
:10035000E9E783F000435BE781F0004158E72DE9CE
:10036000FE4F81EA030404F0004421F000410094B0
:100370004FF0000B23F0004350EA01045ED052EA34
:1003800003045BD0C3F30A54C1F30A552C44A4F20E
:10039000F3340194A0FB0254C1F3130141F4801122
:1003A000C3F3130343F4801301FB024400FB034E29
:1003B000840A970A44EA815447EA8357A4FB0768F2
:1003C00002958D0A05FB07854FEA932C04FB0C541C
:1003D0002705029D4FEA065847EA1637B5EB080590
:1003E0006EEB070C870E920E47EA811742EA8312E2
:1003F000A7FB0201B6EB0B0164EB00042B0D43EAF3
:100400000C335E1844EB1C50DA465146E7FB020100
:10041000C5F313044FEA0B3343EA14534FEA043293
:10042000019C43EA0603A4F10C040294009CCDE96C
:1004300000B400F0F7F803B0BDE8F08F00200146EB
:10044000F9E72DE9F04D81EA030404F0004B21F0B7
:10045000004514464FF0000A23F0004150EA05021F
:1004600020D054EA01021DD0C5F30A570246C5F355
:100470001303C1F31300C1F30A5640F4801543F48B
:100480008013A7EB0608101BD64608F2FD3873EB65
:10049000050002D308F1010801E092185B41B8F1B0
:1004A000000F03DA00200146BDE8F08D00204FF474
:1004B0008011064684460EE0171B73EB050705D333
:1004C000121B63EB050306434CEA010C49084FEA93
:1004D000300092185B4150EA0107EDD152EA030067
:1004E00012D082EA040083EA0501084305D0101BFC
:1004F000AB4106D20122002306E000224FF0004368
:1005000002E06FF0010253101AEB06004CEB0851A9
:1005100010EB0A0041EB0B01BDE8F04D00F073B8A1
:10052000C1F30A52C1F3130140F2FF3341F48011C9
:100530009A4202DA00200146704740F233439A4261
:10054000A2F2334202DC524200F03BB800F02AB87B
:1005500030B5041E71F1000404DB4FF0004440424A
:1005600064EB0101141E73F1000405DB1C464FF01F
:100570000043524263EB0403994208BF904230BDEE
:10058000064C074D06E0E06840F0010394E80700E0
:1005900098471034AC42F6D3FFF7C8FD9825000801
:1005A000B8250008202A04DB203A00FA02F10020D6
:1005B00070479140C2F1200320FA03F319439040A1
:1005C0007047202A04DB203A21FA02F0002170470C
:1005D00021FA02F3D040C2F12002914008431946AB
:1005E0007047202A06DBCB17203A41FA02F043EA93
:1005F000E07306E041FA02F3D040C2F120029140DC
:1006000008431946704710B5141E73F1000408DA48
:10061000401C41F1000192185B411A4301D120F0C6
:10062000010010BD2DE9F04D92469B4611B1B1FA83
:1006300081F202E0B0FA80F220329046FFF7B2FF7A
:1006400004460F4640EA0A0041EA0B0153465A4667
:10065000084313D0114653EA010019D0C8F14002F3
:100660005046FFF7AEFF05460E46504659464246F5
:10067000FFF798FF084305D0012004E020463946E3
:10068000BDE8F08D0020054346EAE0762C43374371
:100690000A986305E40AA0EB08000022FD0A44EA78
:1006A00047540A3002D500200146E9E70105101938
:1006B0006941DDE9084500196941BDE8F04DA2E74F
:1006C000FEE7704731B500F0E1F8044600F0DEF8CF
:1006D0000099001B8842F9D338BD00002DE9F84F7E
:1006E000DFF880B100234FF0010C4FF0030A4FF008
:1006F0000F090BF1040EAEE00CFA03F614EA060241
:1007000070D04C68022C01D0122C11D1DC0800EB07
:1007100084073C6A5D07ED0E09FA05F824EA08042F
:10072000D1F8108008FA05F848EA0408C7F82080D4
:1007300007685D0091F804800AFA05F408F00308E0
:10074000A74308FA05F848EA0708C0F800804F6890
:10075000012F05D0022F03D0112F01D0122F11D15C
:100760008768D1F80C80A74308FA05F848EA07081B
:10077000C0F808804768B7430E79C6F300169E405C
:100780003E434660C668A6438C68AC403443C460B0
:100790004C68E4005ED5344C256845F001052560C1
:1007A000246823F0030504F0010400942F4C2E1953
:1007B000B4689D072F0F09FA07F5AC432C4DA842EA
:1007C00001D100251FE02B4DA84201D101251AE0DF
:1007D000294DA84201D1022515E0284DA84202D199
:1007E000032510E036E0264DA84201D104250AE099
:1007F000244DA84201D1052505E0234DA84201D191
:10080000062500E00725BD402543B560DBF8004024
:100810005D464E689443F60300D514432C60DEF821
:10082000004075464E689443B60300D514432C60CF
:100830000C4D08352C684E689443F60200D51443DD
:100840002C60084D0C352C684E689443B60200D5D8
:1008500014432C605B1C0A681446DA407FF44CAFEA
:10086000BDE8F88F0004014020380240000001403C
:10087000000002400004024000080240000C024058
:1008800000100240001402400018024001480068B5
:10089000704700002C00002002480168491C0160DC
:1008A000704700002C00002010B5032000F084F8F1
:1008B000002000F005F800F017F8002010BD00003F
:1008C00010B5044607484FF47A710068B0FBF1F0A8
:1008D00000F09FFD00222146501E00F04DF8002040
:1008E00010BD000030000020224808B5016841F02A
:1008F00000410160016801F000410091011F0A6898
:1009000042F001020A60096801F0010100910168EA
:1009100041F080510160006800F080500090032099
:1009200000F04AF8002211466FF00B0000F024F8A6
:10093000002211466FF00A0000F01EF80022114656
:100940006FF0090000F018F800221146501F00F067
:1009500013F800221146101F00F00EF80022114675
:10096000901E00F009F80022BDE808401146501E14
:1009700000F002B824380240F0B40E4B1B680C465D
:10098000C3F30223C3F10705042D00D90425191D63
:10099000072901D2002300E0DB1E012606FA05F13B
:1009A000491E214099409E40761E16403143F0BCBE
:1009B00000F03ABE0CED00E0064900F007020868BE
:1009C0004FF6FF03184040EA0220034A1043086034
:1009D000704700000CED00E00000FA052DE9F0473B
:1009E000DFF8BC8105460E46D8F8000000F0010093
:1009F000B04214D2012E05D1D8F8001041F0040104
:100A0000C8F80010D8F8001021F001013143C8F8EF
:100A10000010D8F8000000F00100B04271D1287831
:100A2000604C800705D52068A96820F0F0000843D5
:100A300020602878C00771D05A4A5A4B6968012053
:100A4000083A2C33022910D003292ED001292FD0A7
:100A50005FEA402797FAA7FCBCFA8CFC4CF0200C0C
:100A60005FEA5C1C04D0126803E04FF40037F1E742
:100A70001A6897FAA7F3B3FA83F303F01F039840B9
:100A8000024262D0206820F0030008432060FFF794
:100A9000FDFE6968074641F28830022910D003291B
:100AA0001CD00129814626D034E04FF00077D1E7F1
:100AB0000227CFE7FFF7EAFEC11B494501D926E02F
:100AC00081462068C0F381000228F3D126E000BFF0
:100AD000FFF7DCFEC11B494501D918E081462068BB
:100AE000C0F381000328F3D118E000BFFFF7CEFE6A
:100AF000C11B49450BD82068C0F381000128F5D1FE
:100B00000CE022E0FFF7C2FEC11B494502D90320D9
:100B1000BDE8F087206810F00C0FF3D1D8F8001072
:100B2000404601F00101B14211D9012E03D1016803
:100B300041F004010160016821F0010131430160CD
:100B4000006800F00100B04201D00120E0E7287801
:100B5000400705D52068E96820F4E060084320607C
:100B60002878000706D52068296920F4605040EAFB
:100B7000C100206000F052F82168F02292FAA2F23F
:100B800001F0F001B2FA82F2D140074A515CC8404C
:100B9000064908600020FFF793FE0020B8E7000038
:100BA000003C0240083802407D250008300000204B
:100BB00001480068704700003000002008480949DB
:100BC000006809684FF4E06292FAA2F201F4E06171
:100BD000B2FA82F2D140044A515CC840704700002A
:100BE00030000020083802408D25000808480949D7
:100BF000006809684FF4605292FAA2F201F4605161
:100C0000B2FA82F2D140044A515CC84070470000F9
:100C100030000020083802408D2500081E4A116867
:100C200001F00C00042813D0082813D00C2813D08E
:100C3000101F006800F460414FF4604090FAA0F08B
:100C4000B0FA80F0C1404FF40040491C8840704722
:100C500012487047124870474FF4701393FAA3F389
:100C600001F47010B3FA83F3D8400E4B01F4400145
:100C70001268185C4FF4400393FAA3F3B3FA83F3BA
:100C8000D940491CD20301D5054A00E0034A50432C
:100C9000B0FBF1F070470000083802400024F40077
:100CA00000366E01742500082DE9F84F07460078DC
:100CB000FB4EFC4DC0074FF0010428D0F848083027
:100CC00001684FF40038C1F38101022907D001689F
:100CD000C1F3810103291BD10068C00318D598FA1C
:100CE000A8F0B0FA80F040F02000400901D0306850
:100CF00000E0286898FAA8F1B1FA81F101F01F012B
:100D000004FA01F108425CD0786800287BD058E0F2
:100D1000786801280AD008B1052811D0306820F47D
:100D200080303060306820F4802002E0306840F489
:100D300080303060786828B3FFF7A8FD81460BE06B
:100D4000306840F480203060F0E700BFFFF79EFD80
:100D5000A0EB0900642872D898FAA8F0B0FA80F0E5
:100D600040F02000400901D0306800E0286898FA7F
:100D7000A8F1B1FA81F101F01F0104FA01F1084272
:100D8000E4D01EE0FFF782FD814605E0FFF77EFD1F
:100D9000A0EB09006428DED898FAA8F0B0FA80F039
:100DA00040F02000400901D0306800E0286898FA3F
:100DB000A8F1B1FA81F101F01F0104FA01F1084232
:100DC000E4D13878DFF8E08280074FF0000B4FF075
:100DD00002095FD5B24808300168C1F381010129D9
:100DE00007D00168C1F3810103291CD10068C00349
:100DF00019D499FAA9F0B0FA80F040F02000400927
:100E000002D0306801E086E0286899FAA9F1B1FAC9
:100E100081F101F01F0104FA01F108422BD0F868BA
:100E2000012878D127E0F868A8B394FAA4F0B0FAC2
:100E300080F048F82040FFF729FD824606E066E191
:100E4000FFF724FDA0EB0A00022884D899FAA9F143
:100E5000B1FA81F141F02001490901D0316800E087
:100E6000296899FAA9F0B0FA80F000F01F0004FA9E
:100E700000F00142E4D08A48001D01684FF4F853A5
:100E800093FAA3F33A69B3FA83F321F4F8519A4041
:100E90001143016025E0FFE794FAA4F1B1FA81F172
:100EA00048F821B0FFF7F2FC824605E0FFF7EEFCC0
:100EB000A0EB0A000228C8D899FAA9F0B0FA80F08D
:100EC00040F02000400901D0306800E0286899FA1D
:100ED000A9F1B1FA81F101F01F0104FA01F1084210
:100EE000E4D138784FF4007AC0067CD56C480830DD
:100EF000006810F00C0F0FD0B9694FF48070002912
:100F000072D090FAA0F0B0FA80F048F82040FFF7D5
:100F1000BDFC00907EE087E09AFAAAF0B0FA80F07B
:100F200040F02000400901D0306800E028689AFABB
:100F3000AAF1B1FA81F101F01F0104FA01F10842AE
:100F400002D0B86900286FD05548396A001D006882
:100F500000F4604081421AD9084600F077FB00286F
:100F600062D14F48001D01683A6A21F46041114383
:100F7000016001684FF07F4393FAA3F3FA69B3FA73
:100F800083F321F07F419A401143016018E0444807
:100F9000001D026822F460420A43026001684FF0BB
:100FA0007F4393FAA3F3FA69B3FA83F321F07F4105
:100FB0009A4011430160386A00F048FB0028CFD105
:100FC0004FF4604191FAA1F1386AB1FA81F1C84059
:100FD0004FF40041401C8140314808300068F02245
:100FE00000F0F00001E070E040E092FAA2F2B2FA04
:100FF00082F2D0402D4A105CC1402D480160002093
:10100000FFF75EFC61E000BFFFF740FC0099401A6B
:1010100002287CD89AFAAAF0B0FA80F040F02000BA
:10102000400902D0306801E0BCE128689AFAAAF1D0
:10103000B1FA81F101F01F0104FA01F10842E3D095
:101040001748001D01683A6A21F4604111430160AC
:1010500001684FF07F4393FAA3F3FA69B3FA83F37D
:1010600021F07F419A40114301602EE090FAA0F0F8
:10107000B0FA80F048F820B0FFF708FC009005E0D7
:10108000FFF704FC0099401A0228C2D89AFAAAF085
:10109000B0FA80F040F0200040090BD030680AE040
:1010A0000038024034380240000047427D250008E5
:1010B0003000002028689AFAAAF1B1FA81F101F013
:1010C0001F0104FA01F10842DAD13878000753D53C
:1010D000786948B394FAA4F0B0FA80F008EB800085
:1010E000C0F88046FFF7D2FB009005E0FFF7CEFB8B
:1010F0000099401A02288CD899FAA9F0B0FA80F029
:1011000040F04000B4EB501F02D1306801E08EE0A7
:10111000286899FAA9F1B1FA81F101F01F0104FAE6
:1011200001F21042E2D027E094FAA4F1B1FA81F181
:1011300008EB8101C1F880B6FFF7A8FB009005E03D
:10114000FFF7A4FB0099401A022870D899FAA9F079
:10115000B0FA80F040F04000B4EB501F01D130688D
:1011600000E0286899FAA9F1B1FA81F101F01F01B4
:1011700004FA01F21042E3D1387840077BD59B484E
:101180004FF000090068C0000AD49848016841F097
:101190008051016000684FF0010900F0805000901C
:1011A00093480168C90511D4016841F48071016058
:1011B000FFF76CFB009005E0FFF768FB0099401A11
:1011C000642834D88A480068C005F5D5B868012875
:1011D0000AD008B1052811D0286820F48070286052
:1011E000286820F4806002E0286840F4807028605D
:1011F000B86848B3FFF74AFB00900DE0286840F458
:1012000080602860F0E700BFFFF740FB0099411ABB
:1012100041F2883081420AD89AFAAAF0B0FA80F0F6
:1012200040F04000B4EB501F02D1306801E095E07F
:1012300028689AFAAAF1B1FA81F101F01F0104FAC3
:1012400001F21042E0D022E0FFF720FB009007E01F
:10125000FFF71CFB0099411A41F2883081427DD88A
:101260009AFAAAF0B0FA80F040F04000B4EB501FB8
:1012700002D1306801E012E028689AFAAAF1B1FAC6
:1012800081F101F01F0104FA01F21042E0D1B9F13D
:10129000000F04D05548016821F080510160786A40
:1012A000E8B3DFF84891A9F11C09D9F80010C1F39F
:1012B0008101032976D002284FF080714FF0007A27
:1012C00058460BD091FAA1F1B1FA81F148F821000A
:1012D000FFF7DCFAB046074656466DE04FF08071E6
:1012E00091FAA1F1B1FA81F18A0042495050FFF719
:1012F000CDFAB3468046564606E000BFFFF7C6FA71
:10130000A0EB0800022854D896FAA6F0B0FA80F0B4
:1013100040F02000400903D0DBF8000001E061E06C
:10132000286896FAA6F1B1FA81F101F01F0104FADA
:1013300001F10842E2D1D7E90A103A6BD9F800303E
:10134000014323F47D031A431143C9F800104FF001
:10135000807090FAA0F0B0FA80F000E029E08100FF
:1013600024480C50FFF792FA074604E0FFF78EFA84
:10137000C01B02281DD896FAA6F0B0FA80F040F003
:101380002000400902D0DBF8000000E0286896FA4F
:10139000A6F1B1FA81F101F01F0104FA01F108424E
:1013A000E4D01FE020E000BFFFF770FAC01B022866
:1013B00002D90320BDE8F88F96FAA6F0B0FA80F0C3
:1013C00040F02000400902D0D8F8000000E0286872
:1013D00096FAA6F1B1FA81F101F01F0104FA01F1C8
:1013E0000842E1D10020E5E70120E3E7243802408C
:1013F00000700040000047424FF0E02104280869D7
:1014000003D020F004000861704740F00400FAE7C0
:10141000704710B5401EB0F1807F01D3012010BD90
:101420004FF0E02460610F21601700F0FDF800200C
:10143000A06107202061002010BD10B5FFF7E8FF74
:1014400010BD70B5040004D094F83900002510B127
:1014500006E0012070BD84F83850204600F020F8E6
:10146000022084F839002068C16821F40051C1606D
:10147000204600F097F92068016921F4904101614C
:101480002068416921F02A0141612068C16841F466
:101490000051C160E563012084F83900002070BD6F
:1014A00000B500680E4987B0884217D10D48016821
:1014B00041F4804101600068694600F48040059075
:1014C0004FF4C060009002200190012002900320A0
:1014D0000390072004900448FFF700F907B000BD0F
:1014E0000038014020380240000002402DE9F0475A
:1014F000044690F8390099460D46012801D022286B
:1015000058D12DB322B394F83800012852D00126C7
:1015100084F838600027E76394F8390022281AD04D
:101520005FF0120084F83900A284E2844FF48058FE
:10153000E08C4B46401EE084A0684FF0000240451E
:101540004FF08001204613D100F07CFA08BB04E084
:101550000120BDE8F0873220E4E728882168C0F345
:1015600008004860206908B16D1C08E0AD1C06E069
:1015700000F068FA68B9216815F8010B4860E08C42
:101580000028D5D14B4600224021204600F05AFACF
:1015900008B10320DDE794F83900322806D084F83A
:1015A000396000BF84F838700020D2E7222084F828
:1015B0003900F7E70220CCE7FEE70000054808B550
:1015C000016841F001010160006800F00100009035
:1015D00008BD00001C3802400D4810B50B490160E1
:1015E0004FF4E1314160002181600C22C160C0E90B
:1015F00004128161C161FFF724FF002805D0BDE816
:101600001040422103A000F067BA10BD003801402D
:10161000380000202E2E2F5372632F757361727461
:101620002E630000FEE770470907090E002806DA5E
:1016300000F00F0000F1E02080F8141D704700F169
:10164000E02080F8001470477047000038B51C494E
:10165000002309681B4A11F0F00F23D118491C31EF
:101660000C68E500184C03D5216801F4C0540EE065
:101670000D6845F080550D600D6805F080550095AA
:1016800024680D6804F4C05425F080550D60B4F54D
:10169000C05F07D1B0F5404F04D11068012340F07E
:1016A00004001060106820F00100184310601068FA
:1016B00000F00100984201D0012038BD002038BD63
:1016C00008380240003C024000700040704710B5EE
:1016D000FFF7E2F8BDE81040FFF7AFBE1C4810B5B9
:1016E000016892B021F4C05141F400610160012110
:1016F000039102201021009000240491CDE90904F7
:1017000040040B9040010C906846FFF7CDFA00B101
:10171000FEE70F200D900320CDE90E041094012167
:101720000DA81194FFF75AF900B1FEE7FFF740FA50
:101730004FF47A71B0FBF1F0FFF76BFE0420FFF776
:101740005BFE00221146501EFFF716F912B010BDC5
:10175000007000400F48016841F4807101600D493C
:1017600008310A680C4B1A400A6002680B4B1A4099
:101770000260026822F480220260086820F47D0082
:1017800008600020091D086005494FF000600860EE
:1017900070470000003802400CC0FF88FEFFFEEEDC
:1017A00008ED00E02DE9F041044600680169E268B7
:1017B00021F44051114301612169A068E2690843A5
:1017C0006169114308432168CA6849F20C639A436E
:1017D0000243CA6020684169A26921F44071114343
:1017E0004161E1696425B1F5004F954821684FF0EA
:1017F00032083DD081427AD1FFF7F8F900EBC00101
:1018000001EB001061688900B0FBF1F6FFF7EEF91B
:1018100000EBC00101EB001061688900B0FBF1F042
:10182000B0FBF5F06FF01801484306EB800108EBC0
:101830000110B0FBF5F000F0F006FFF7D7F900EB70
:10184000C00101EB001061688900B0FBF1F0B0FB52
:10185000F5F006EB0016FFF7C9F900EBC00101EB4C
:10186000001061688900B0FBF1F7FFF7BFF9D0E025
:1018700081423DD1FFF7BAF900EBC00101EB001046
:1018800061684900B0FBF1F0B0FBF5F00601FFF72D
:10189000ADF900EBC00101EB001061684900B0FB3D
:1018A000F1F7FFF7A3F900EBC00101EB001061684D
:1018B0004900B0FBF1F0B0FBF5F06FF018014843C0
:1018C00007EB800108EBC100B0FBF5F000F0F80079
:1018D00006EB4006FFF78AF900EBC00101EB0010B0
:1018E00061684900B0FBF1F7FFF780F93CE055E093
:1018F000FFF764F900EBC00101EB001061684900DB
:10190000B0FBF1F0B0FBF5F00601FFF757F900EB83
:10191000C00101EB001061684900B0FBF1F7FFF76F
:101920004DF900EBC00101EB001061684900B0FB0C
:10193000F1F0B0FBF5F06FF01801484307EB8001C0
:1019400008EBC100B0FBF5F000F0F80006EB400634
:10195000FFF734F900EBC00101EB001061684900AA
:10196000B0FBF1F7FFF72AF900EBC00101EB001023
:1019700061684900B0FBF1F0B0FBF5F06FF01801C1
:10198000484307EB800108EBC100B0FBF5F000F025
:101990000700216830448860BDE8F081FFF70EF948
:1019A00000EBC00101EB001061688900B0FBF1F6AB
:1019B000FFF704F900EBC00101EB0010616889003A
:1019C000B0FBF1F0B0FBF5F06FF01801484306EB07
:1019D000800108EB0110B0FBF5F000F0F006FFF716
:1019E000EDF800EBC00101EB001061688900B0FB6D
:1019F000F1F0B0FBF5F006EB0016FFF7DFF800EBB7
:101A0000C00101EB001061688900B0FBF1F7FFF73E
:101A1000D5F800EBC00101EB001061688900B0FB54
:101A2000F1F0B0FBF5F06FF01801484307EB8001CF
:101A300008EB0110B0FBF5F000F00F00A9E7000083
:101A4000003801402DE9F0471D4690460E460446F9
:101A5000FEF71CFF07465FEA08004FF000094FF051
:101A6000010808D030E0681C05D095B1FEF70EFFE4
:101A7000C01BA8420DD82068006836EA0000F2D1E9
:101A800027E0681C20D025B1FEF700FFC01BA8424C
:101A90001AD92068C16821F08001C1602068C1683E
:101AA00021F02001C1602068C16821F48071C1600B
:101AB0002068416921F00101416184F8398084F88E
:101AC00038900320BDE8F0872068006836EA0000FF
:101AD000D7D00020F6E7FEE7FEE700000FB4054B85
:101AE00010B503A9044A029800F0DAF810BC5DF8BA
:101AF00014FB0000D12300083400002002E008C8D5
:101B0000121F08C1002AFAD170477047002001E077
:101B100001C1121F002AFBD1704700002DE9FF5FB1
:101B200082B00021DDE90430020DDDF840B003434E
:101B300018D044F61050A2F2FF3242431514119807
:101B400001281FD0A5EB0B00401C5FEA000A4FF0F4
:101B500000064E4FDFF83891B046504615D5CAF111
:101B6000000413E0119801244AA3012801D16FEA6F
:101B70000B010298119AC0E90031C0E9024206B097
:101B8000BDE8F09FCBF10000DFE704460021404AAA
:101B9000491842EB0450CDE9001012E0E00707D0ED
:101BA00032463B4640464946FEF7D9FB80468946C9
:101BB00032463B4610461946FEF7D1FB06460F4615
:101BC0006410002CEAD1DDE90401DDE90023BAF15B
:101BD000000F06DAFEF7C3FB42464B46FEF7BFFB9B
:101BE00005E0FEF72EFC42464B46FEF72AFC044673
:101BF0000E460022284BFEF7ABFC03D84FF0FF3017
:101C0000014607E00022254B20463146FEF700FB47
:101C1000FEF786FC102409E0002C0ADB0A220023D0
:101C2000FEF7C5FA039B30321A55641E50EA0102D2
:101C3000F2D1641C039AC4F111031444119A012ACD
:101C400003D0012208430DD10AE0084304D000204C
:101C50004FF0110B119072E7A3EB0B056D1E0DE019
:101C60005B4504DD4FF0000205F1010504E003DAF5
:101C70004FF00002A5F10105002AECD0029811995D
:101C8000C0E90231C0E9004579E7000000001440D6
:101C90000000F03F300000000000F0430000E03F93
:101CA0002DE9FF4F95B09B468946064600250FE279
:101CB000252877D100242746F84A0121059400E021
:101CC000044316F8013F203B01FA03F01042F7D11C
:101CD00030782A2811D06FF02F033078A0F130022D
:101CE000092A16D8059A44F0020402EB820203EB9B
:101CF00042021044761C0590EFE759F8042B059238
:101D0000002A03DA504244F40054059044F00204DF
:101D1000761C30782E2816D116F8010F44F00404F2
:101D20002A280DD06FF02F023078A0F13003092B54
:101D300009D807EB870302EB4303C718761CF3E7C8
:101D400059F8047B761C30786C280FD006DC4C28C0
:101D500017D068280DD06A2814D104E0742810D058
:101D60007A280FD10DE044F400140AE044F4801402
:101D700001E044F440147278824202D104F58014E8
:101D8000761C761C307866280BD013DC582877D068
:101D900009DC002875D04528F6D04628F4D047281D
:101DA0001AD19DE118E0632835D0642879D06528E0
:101DB00012D195E1702873D008DC6728F1D069282A
:101DC0006FD06E280DD06F2806D1B5E073282CD0C7
:101DD000752875D0782874D05A46179990476D1C8D
:101DE00075E1C4F30250022809D003280DD0D9F8B8
:101DF000001004280DD00D6009F1040967E1D9F83D
:101E00000010EA17C1E90052F6E7D9F800100D807A
:101E1000F2E70D70F0E719F8041B8DF800100020B0
:101E20008DF80100EA46012003E059F804AB4FF0B9
:101E3000FF3061074FF0000102D40DE008F101010D
:101E40008846B9420FDA8045F8DB1AF808100029F5
:101E5000F4D108E008F1010188468142FADB1AF862
:101E600008100029F6D105985B46A0EB080721462B
:101E70003846179A00F094FA284400EB080507E06A
:101E80004DE029E10DE01AF8010B5A4617999047E9
:101E9000B8F10108F7D25B4621463846179A13E19C
:101EA00042E00A220092C4F302524FF0000A022AD2
:101EB00008D059F804CB032A4FEAEC710AD00DE0A0
:101EC00029E02AE009F1070121F00702F2E802C146
:101ED000914609E00FFA8CFC4FEAEC71042A03D119
:101EE0004FFA8CFC4FEAEC71002907DA0A46002110
:101EF000DCF1000C61EB02012D2202E0220504D589
:101F00002B228DF80420012203E0E20701D02022D9
:101F1000F7E7904659E00A2102E010220DE0102177
:101F20004FF0000A00910BE010224FF0000A44F03D
:101F300004040827009203E008224FF0000A0092F0
:101F4000C4F30252022A05D059F804CB0021032A17
:101F500008D009E009F1070121F00702F2E802C107
:101F6000914605E01FFA8CFC042A01D10CF0FF0C0D
:101F70004FF00008220728D5702806D0009B83F078
:101F8000100353EA0A0305D00EE040228DF8042026
:101F9000012208E05CEA010206D030228DF804201C
:101FA0008DF8050002229046009B83F0080353EA57
:101FB0000A030AD15CEA010201D1620705D5302289
:101FC0008DF804204FF001087F1E582804D034A05B
:101FD00003900EA802900DE036A0F9E75346604644
:101FE000009AFEF7E4F884460398825C0298401E4B
:101FF000029002705CEA0100F0D1029806A9081A6A
:1020000000F1200A600702D524F4803400E00127A3
:10201000574502DDA7EB0A0000E0002000EB0A01B3
:10202000009005984144401A0590E00306D45B46B1
:102030002146179A059800F0B3F90544002706E0F9
:1020400001A85A46C05D179990476D1C7F1C4745F3
:10205000F6DBE0030CD55B462146179A059800F0A5
:102060009FF9054404E030205A46179990476D1CAB
:102070000099481E00900029F5DC08E002980299BA
:102080005A460078491C0291179990476D1CBAF185
:102090000001AAF1010AF1DC65E100000928010054
:1020A00030313233343536373839616263646566CE
:1020B0000000000030313233343536373839414290
:1020C000434445460000000000F058F90544761CE2
:1020D000307800287FF4ECAD19B02846BDE8F08FC9
:1020E000620700D4062709F1070222F0070CFCE87A
:1020F0000223E14603F000485FEA080C02D00FF229
:10210000702C0DE05FEA045C02D50FF2682C07E04A
:102110005FEAC47C02D00FF2602C01E0AFF2700CD9
:102120004FF0FF3823F00043CDF850C065280CD0A5
:1021300006DC452809D046281DD047283DD13DE082
:10214000662818D067287ED138E00021112F01DBE6
:10215000112000E0781CCDE9000106A90EA8FFF7C8
:10216000DDFCDDE90F010E9A03910021009207F1D9
:10217000010A04914DE04FF000400097CDE90110B5
:1021800006A90EA8FFF7CAFCDDE90F0203920E9B19
:1021900011990022DDF80CA00093049211B9791C6A
:1021A00000EB010AB7EB0A0004D4C0F1FF3007F1DD
:1021B000010A0490AAEB0700019044E0012F00DA25
:1021C00001270021112F01DD112000E03846CDE963
:1021D000000106A90EA8FFF7A1FCDDE90F010E9A88
:1021E0000391002104910092BA4621070CD403996F
:1021F000514500DA8A46BAF1010F05DD009AAAF1CD
:102200000101515C302908D0B84202DA10F1040F04
:1022100006DA0121CDE9011015E0AAF10101E9E793
:10222000002805DC049901440491AAEB000102E0B6
:10223000411C514500DD8A460499401A401C01901A
:102240004FF000400290200704D40198504501DB74
:10225000CDF8048000208DF84F0002980DF14F0753
:10226000B0F1004F25D02B200E9002984FF00208BD
:1022700000280CDA404202902D200E9007E00A213F
:102280000298FDF77EFF3031029007F8011DB8F18A
:102290000001A8F10108F2DC02980028EFD1791EB4
:1022A0000E980870307800F0200040F0450007F8E4
:1022B000020D12A8C01B00F107081498007800B1A5
:1022C000012000EB0A01019801EBE07105984144FF
:1022D000401A401E0590E00306D45B462146179A3B
:1022E000059800F05DF805441498007818B15A4636
:1022F000179990476D1CE00324D55B462146179A39
:10230000059800F04DF805441CE00498002807DB10
:10231000DDE90301884203DD0098405C179901E084
:10232000179930205A469047049805F10105401C42
:1023300004900198401E019004D12E205A4617990E
:1023400090476D1CBAF10001AAF1010ADDDC05E03D
:1023500017F8010B5A46179990476D1CB8F1000108
:10236000A8F10108F4DC5B462146179A0598ABE614
:102370002D0000002B000000200000002DE9F0419E
:10238000044600251E461746880404D405E0394655
:102390002020B0476D1C641EF9D52846BDE8F081A9
:1023A0002DE9F041044600251E469046C80301D59C
:1023B000302700E02027880404D505E04146384650
:1023C000B0476D1C641EF9D52846BDE8F0810000B9
:1023D00013B50A23012269460248FFF787F80098DF
:1023E0001CBD0000380000201CB5FEF75DFAFFF7A9
:1023F00075F9FFF7E3F8FFF7EFF81F4C4FF47A7524
:102400001EA02178FFF76AFB1B4921A01831FFF7B6
:1024100065FB23A06168FFF761FBA068FDF79EFEE6
:1024200002460B4624A0FFF759FBA068FDF796FE75
:1024300002460B4626A0FFF751FBD4E904232AA04D
:10244000FFF74CFB2EA06168FFF748FB32A06168E4
:10245000FFF744FB2846FEF735F9A068FDF77EFE3E
:10246000CDE90001217833A06268FFF737FB2846E9
:10247000FEF728F9C4E700000000002043686172FD
:102480006163746572206973202563200D0A000062
:10249000537472696E67206973202573200D0A00DA
:1024A000496E74656765722076616C756520697325
:1024B000202564200D0A0000466C6F61742076614F
:1024C0006C7565206973202566200D0A00000000E8
:1024D000466C6F61742076616C7565206973202588
:1024E0002E3266200D0A0000446F75626C652076FE
:1024F000616C756520697320256C66200D0A0000EB
:102500004F6374616C2076616C756520697320255A
:102510006F200D0A000000004865786164656369FA
:102520006D616C2076616C7565206973202578205B
:102530000D0A0000436861726163746572206973FB
:10254000202563203A20496E7465676572207661A4
:102550006C7565206973202564203A20466C6F6194
:10256000742076616C756520697320252E32662093
:10257000200D0A00030406080C101820300000008B
:102580000000000000010203040607080900000023
:102590000001020304000000B8250008000000202C
:1025A00038000000FC1A0008F02500083800002060
:1025B000400400000C1B0008410000002000000047
:1025C0003F75054300000000B77EFACF9A1F3440E4
:1025D00048656C6C6F20576F726C640000000000DF
:1025E000000000000000000068FF1F000000000065
:0400000508000125C9
:00000001FF
