:020000040800F2
:10000000A0040020390100085B15000881140008D5
:1000100059150008F50100087919000800000000D2
:1000200000000000000000000000000001160008B1
:10003000F7010008000000007D1500080316000805
:100040005301000853010008530100085301000840
:100050005301000853010008530100085301000830
:100060005301000853010008530100085301000820
:100070005301000853010008530100085301000810
:100080005301000853010008530100085301000800
:1000900053010008530100085301000853010008F0
:1000A00053010008530100085301000853010008E0
:1000B00053010008530100085301000853010008D0
:1000C00053010008530100085301000853010008C0
:1000D00053010008530100085301000853010008B0
:1000E00053010008530100085301000853010008A0
:1000F00053010008000000005301000853010008EC
:10010000530100085301000853010008530100087F
:1001100053010008530100085301000800000000CB
:1001200053010008DFF80CD000F018F80048004731
:100130009D190008A0040020064880470648004793
:10014000FEE7FEE7FEE7FEE7FEE7FEE7FEE7FEE787
:10015000FEE7FEE78916000825010008064C074D5A
:1001600006E0E06840F0010394E807009847103487
:10017000AC42F6D3FFF7DAFFFC1900081C1A00089E
:10018000F8B500260446009600680168C943490690
:100190002AD5816841F00101816014481449006842
:1001A000B0FBF1F000EB400000E0401E00900028A2
:1001B000FBD100F035FB054611E000BF00F030FB3D
:1001C000401B02280BD9E06C40F01000E064206D69
:1001D00040F00100206584F848600120F8BD2068E7
:1001E0000068C0434006E9D40020F8BD08000020A4
:1001F00040420F00FEE77047F8B50024009490F8E5
:1002000048202546012A12D0012280F848204A6859
:100210001F23072A0DD207683E6C521E02EB820292
:1002200093409E430B6893401E433E6435E002209A
:10023000F8BD0D2A0BD20668F76BD21F02EB8202C3
:1002400093409F430B6893401F43F76325E0132AB5
:100250000BD20668B76B0D3A02EB820293409F43C4
:100260000B6893401F43B76317E00668192A0AD248
:10027000776B133A02EB820293409F430B689340E3
:100280001F43776309E0376B193A02EB8202934010
:100290009F430B6893401F4337630A6807230A2A6A
:1002A0000AD20668776902EB420293409F438B684B
:1002B00093401F43776125E0142A0BD207683E69FB
:1002C0000A3A02EB420293409E438B6893401E43DE
:1002D0003E6117E007681D2A0AD8FE68143A02EB4F
:1002E000420293409E438B6893401E43FE6009E0A8
:1002F000FE6D1E3A02EB420293409E438B68934090
:100300001E43FE650A68102A01D0112A17D10E4A31
:1003100013681B0213D4136843F4000313600968C5
:1003200010290CD109490A4A0968B1FBF2F101EB25
:100330008101490000E0491E00910029FBD180F8AD
:1003400048502046F8BD0000042701400800002066
:1003500040420F000068806D70470000F8B504004F
:100360004FF0000503D0E06C002610B110E0012032
:10037000F8BD26655B4884F84860016841F00101DA
:100380000160006800F001000090204600F0B4F821
:10039000E06CC00678D4E06C20F4885040F0020095
:1003A000E06451480168626821F440311143016002
:1003B0006169E0684FF40073084393FAA3F3E26BBA
:1003C000B3FA83F3216A9A4011430843022191FA58
:1003D000A1F1626AB1FA81F102FA01F10843616B9D
:1003E000102902D0A36B19430843236819684FF4FE
:1003F0008077C943490629D5A169D4F81CC00843B0
:10040000A168D4F810E041EA0C01BE450CD0BEF161
:10041000010F09D04FF0000C41EA0C01D4F82CC0B8
:10042000BCF1010F02D00AE0BC46F5E76AB3E26C0A
:1004300042F02002E264226D42F0010222655A6815
:10044000DFF8A8C002EA0C020A435A6021688A68F1
:10045000274B1A4002438A602169B94224D00129FE
:1004600022D021680A6B22F0F8720A632168896839
:10047000204A1140814227D12665E06C20F002001D
:1004800040F00100E0642AE028E0FFE74FF4604C10
:10049000226B9CFAACFCBCFA8CFC521E02FA0CF2E9
:1004A0000A4342F40061CAE721680A6B4FF0F8770B
:1004B00022F0F873A26A97FAA7F7B7FA87F7521EE5
:1004C000BA4013430B63D1E7E06C20F0020040F028
:1004D0001000E064206D40F00100206501252846F1
:1004E000F8BD00002038024004270140FF16FCFC44
:1004F00089F1FFC0FEFF80BF00B500680C4987B0DE
:10050000884212D10B48016841F400710160006813
:10051000694600F4007005900120009003200190CE
:1005200000200290044800F0A3F807B000BD0000CE
:100530000024014020380240000002402DE9F04133
:10054000044600680D4681684FF0000749050BD549
:100550008068C00508D5E06C40F02000E06484F8B5
:1005600048700120BDE8F08100F05AF906460FE01E
:10057000681C0DD025B100F053F9801BA84207D9A3
:10058000E06C40F00400E06484F848700320E9E780
:10059000206800688007EBD5A06918B921686FF062
:1005A00012000860E06C40F40070E064206881682C
:1005B00011F0405F13D1616A89B9016B11F0F87FC6
:1005C00002D0806840050AD4E06C20F48070E064BA
:1005D000E06CC00403D4E06C40F00100E064002053
:1005E000C0E710B5044690F84800012822D0012049
:1005F00084F848002046FFF7C3FD00281BD1E16CBA
:1006000040F20162914341F48071E16421684A68DB
:10061000520505D5E26C22F4005242F48052E264A5
:10062000E26CD3044FF0000206D5236D23F00603DD
:10063000236502E0022010BD226584F848206FF097
:1006400022020A6021688A6812F0405FF3D18A684A
:1006500042F080428A6010BD31B500F0E1F80446F6
:1006600000F0DEF80099001B8842F9D338BD000085
:100670002DE9F84FDFF880B100234FF0010C4FF067
:10068000030A4FF00F090BF1040EAEE00CFA03F66B
:1006900014EA060270D04C68022C01D0122C11D141
:1006A000DC0800EB84073C6A5D07ED0E09FA05F8EB
:1006B00024EA0804D1F8108008FA05F848EA04088A
:1006C000C7F8208007685D0091F804800AFA05F4F5
:1006D00008F00308A74308FA05F848EA0708C0F835
:1006E00000804F68012F05D0022F03D0112F01D0B9
:1006F000122F11D18768D1F80C80A74308FA05F8AA
:1007000048EA0708C0F808804768B7430E79C6F37F
:1007100000169E403E434660C668A6438C68AC40C7
:100720003443C4604C68E4005ED5344C256845F021
:1007300001052560246823F0030504F001040094FA
:100740002F4C2E19B4689D072F0F09FA07F5AC43FB
:100750002C4DA84201D100251FE02B4DA84201D10C
:1007600001251AE0294DA84201D1022515E0284DA6
:10077000A84202D1032510E036E0264DA84201D15F
:1007800004250AE0244DA84201D1052505E0234DAA
:10079000A84201D1062500E00725BD402543B560EC
:1007A000DBF800405D464E689443F60300D51443E1
:1007B0002C60DEF8004075464E689443B60300D5C1
:1007C00014432C600C4D08352C684E689443F60297
:1007D00000D514432C60084D0C352C684E689443AA
:1007E000B60200D514432C605B1C0A681446DA403C
:1007F0007FF44CAFBDE8F88F000401402038024080
:1008000000000140000002400004024000080240D5
:10081000000C024000100240001402400018024088
:100820000148006870470000040000200248016889
:10083000491C0160704700000400002010B503202F
:1008400000F084F8002000F005F800F017F8002010
:1008500010BD000010B5044607484FF47A710068D7
:10086000B0FBF1F000F09FFD00222146501E00F089
:100870004DF8002010BD000008000020224808B5F7
:10088000016841F000410160016801F00041009100
:10089000011F0A6842F001020A60096801F00101C3
:1008A0000091016841F080510160006800F08050C3
:1008B0000090032000F04AF8002211466FF00B0070
:1008C00000F024F8002211466FF00A0000F01EF834
:1008D000002211466FF0090000F018F800221146BE
:1008E000501F00F013F800221146101F00F00EF800
:1008F00000221146901E00F009F80022BDE80840D1
:100900001146501E00F002B824380240F0B40E4BDD
:100910001B680C46C3F30223C3F10705042D00D95D
:100920000425191D072901D2002300E0DB1E012642
:1009300006FA05F1491E214099409E40761E164058
:100940003143F0BC00F00ABE0CED00E0064900F0B7
:10095000070208684FF6FF03184040EA0220034AE6
:1009600010430860704700000CED00E00000FA053D
:100970002DE9F047DFF8BC8105460E46D8F80000A7
:1009800000F00100B04214D2012E05D1D8F80010B9
:1009900041F00401C8F80010D8F8001021F001015E
:1009A0003143C8F80010D8F8000000F00100B04250
:1009B00071D12878604C800705D52068A96820F09F
:1009C000F000084320602878C00771D05A4A5A4B7B
:1009D00069680120083A2C33022910D003292ED04F
:1009E00001292FD05FEA402797FAA7FCBCFA8CFCBC
:1009F0004CF0200C5FEA5C1C04D0126803E04FF45A
:100A00000037F1E71A6897FAA7F3B3FA83F303F014
:100A10001F039840024262D0206820F00300084380
:100A20002060FFF7FDFE6968074641F28830022921
:100A300010D003291CD00129814626D034E04FF084
:100A40000077D1E70227CFE7FFF7EAFEC11B494550
:100A500001D926E081462068C0F381000228F3D145
:100A600026E000BFFFF7DCFEC11B494501D918E0B5
:100A700081462068C0F381000328F3D118E000BF4D
:100A8000FFF7CEFEC11B49450BD82068C0F381009B
:100A90000128F5D10CE022E0FFF7C2FEC11B494559
:100AA00002D90320BDE8F087206810F00C0FF3D1C5
:100AB000D8F80010404601F00101B14211D9012ED1
:100AC00003D1016841F004010160016821F00101D6
:100AD00031430160006800F00100B04201D0012004
:100AE000E0E72878400705D52068E96820F4E06051
:100AF000084320602878000706D52068296920F47B
:100B0000605040EAC100206000F052F82168F022F5
:100B100092FAA2F201F0F001B2FA82F2D140074A51
:100B2000515CC840064908600020FFF793FE002092
:100B3000B8E70000003C024008380240E119000814
:100B400008000020014800687047000008000020ED
:100B500008480949006809684FF4E06292FAA2F275
:100B600001F4E061B2FA82F2D140044A515CC8401B
:100B7000704700000800002008380240F119000802
:100B800008480949006809684FF4605292FAA2F2D5
:100B900001F46051B2FA82F2D140044A515CC8407B
:100BA000704700000800002008380240F1190008D2
:100BB0001E4A116801F00C00042813D0082813D035
:100BC0000C2813D0101F006800F460414FF46040FF
:100BD00090FAA0F0B0FA80F0C1404FF40040491CF8
:100BE0008840704712487047124870474FF470139E
:100BF00093FAA3F301F47010B3FA83F3D8400E4BC9
:100C000001F440011268185C4FF4400393FAA3F317
:100C1000B3FA83F3D940491CD20301D5054A00E059
:100C2000034A5043B0FBF1F070470000083802401F
:100C30000024F40000366E01D81900082DE9F84FA1
:100C400007460078FB4EFC4DC0074FF0010428D04A
:100C5000F848083001684FF40038C1F381010229D7
:100C600007D00168C1F3810103291BD10068C003CB
:100C700018D598FAA8F0B0FA80F040F020004009AA
:100C800001D0306800E0286898FAA8F1B1FA81F143
:100C900001F01F0104FA01F108425CD078680028D5
:100CA0007BD058E0786801280AD008B1052811D017
:100CB000306820F480303060306820F4802002E01A
:100CC000306840F480303060786828B3FFF7A8FDC2
:100CD00081460BE0306840F480203060F0E700BFD0
:100CE000FFF79EFDA0EB0900642872D898FAA8F0DF
:100CF000B0FA80F040F02000400901D0306800E0F8
:100D0000286898FAA8F1B1FA81F101F01F0104FAFC
:100D100001F10842E4D01EE0FFF782FD814605E0C4
:100D2000FFF77EFDA0EB09006428DED898FAA8F052
:100D3000B0FA80F040F02000400901D0306800E0B7
:100D4000286898FAA8F1B1FA81F101F01F0104FABC
:100D500001F10842E4D13878DFF8E08280074FF0F3
:100D6000000B4FF002095FD5B24808300168C1F3AB
:100D70008101012907D00168C1F3810103291CD138
:100D80000068C00319D499FAA9F0B0FA80F040F0D5
:100D90002000400902D0306801E086E0286899FA16
:100DA000A9F1B1FA81F101F01F0104FA01F1084241
:100DB0002BD0F868012878D127E0F868A8B394FA16
:100DC000A4F0B0FA80F048F82040FFF729FD8246F1
:100DD00006E066E1FFF724FDA0EB0A00022884D8B4
:100DE00099FAA9F1B1FA81F141F02001490901D044
:100DF000316800E0296899FAA9F0B0FA80F000F0B3
:100E00001F0004FA00F00142E4D08A48001D016886
:100E10004FF4F85393FAA3F33A69B3FA83F321F446
:100E2000F8519A401143016025E0FFE794FAA4F1DC
:100E3000B1FA81F148F821B0FFF7F2FC824605E0F3
:100E4000FFF7EEFCA0EB0A000228C8D899FAA9F037
:100E5000B0FA80F040F02000400901D0306800E096
:100E6000286899FAA9F1B1FA81F101F01F0104FA99
:100E700001F10842E4D138784FF4007AC0067CD5FD
:100E80006C480830006810F00C0F0FD0B9694FF4AF
:100E90008070002972D090FAA0F0B0FA80F048F883
:100EA0002040FFF7BDFC00907EE087E09AFAAAF0B0
:100EB000B0FA80F040F02000400901D0306800E036
:100EC00028689AFAAAF1B1FA81F101F01F0104FA37
:100ED00001F1084202D0B86900286FD05548396A3C
:100EE000001D006800F4604081421AD9084600F0F5
:100EF00047FB002862D14F48001D01683A6A21F47F
:100F000060411143016001684FF07F4393FAA3F3FE
:100F1000FA69B3FA83F321F07F419A4011430160EB
:100F200018E04448001D026822F460420A4302604F
:100F300001684FF07F4393FAA3F3FA69B3FA83F39E
:100F400021F07F419A4011430160386A00F018FB9C
:100F50000028CFD14FF4604191FAA1F1386AB1FA7B
:100F600081F1C8404FF40041401C814031480830B5
:100F70000068F02200F0F00001E070E040E092FA3A
:100F8000A2F2B2FA82F2D0402D4A105CC1402D4844
:100F900001600020FFF75EFC61E000BFFFF740FC4E
:100FA0000099401A02287CD89AFAAAF0B0FA80F088
:100FB00040F02000400902D0306801E0BCE1286820
:100FC0009AFAAAF1B1FA81F101F01F0104FA01F1D4
:100FD0000842E3D01748001D01683A6A21F46041D5
:100FE0001143016001684FF07F4393FAA3F3FA695C
:100FF000B3FA83F321F07F419A40114301602EE060
:1010000090FAA0F0B0FA80F048F820B0FFF708FCA2
:10101000009005E0FFF704FC0099401A0228C2D8AE
:101020009AFAAAF0B0FA80F040F0200040090BD004
:1010300030680AE00038024034380240000047427D
:10104000E11900080800002028689AFAAAF1B1FA0C
:1010500081F101F01F0104FA01F10842DAD1387878
:10106000000753D5786948B394FAA4F0B0FA80F039
:1010700008EB8000C0F88046FFF7D2FB009005E047
:10108000FFF7CEFB0099401A02288CD899FAA9F0F4
:10109000B0FA80F040F04000B4EB501F02D130684D
:1010A00001E08EE0286899FAA9F1B1FA81F101F026
:1010B0001F0104FA01F21042E2D027E094FAA4F1F1
:1010C000B1FA81F108EB8101C1F880B6FFF7A8FB06
:1010D000009005E0FFF7A4FB0099401A022870D8A1
:1010E00099FAA9F0B0FA80F040F04000B4EB501F3C
:1010F00001D1306800E0286899FAA9F1B1FA81F1CC
:1011000001F01F0104FA01F21042E3D138784007E0
:101110007BD59B484FF000090068C0000AD498486E
:10112000016841F08051016000684FF0010900F052
:101130008050009093480168C90511D4016841F4BA
:1011400080710160FFF76CFB009005E0FFF768FB22
:101150000099401A642834D88A480068C005F5D53B
:10116000B86801280AD008B1052811D0286820F4F1
:1011700080702860286820F4806002E0286840F4CD
:1011800080702860B86848B3FFF74AFB00900DE014
:10119000286840F480602860F0E700BFFFF740FB5C
:1011A0000099411A41F2883081420AD89AFAAAF08D
:1011B000B0FA80F040F04000B4EB501F02D130682C
:1011C00001E095E028689AFAAAF1B1FA81F101F0FC
:1011D0001F0104FA01F21042E0D022E0FFF720FBE9
:1011E000009007E0FFF71CFB0099411A41F288309C
:1011F00081427DD89AFAAAF0B0FA80F040F040001F
:10120000B4EB501F02D1306801E012E028689AFA6E
:10121000AAF1B1FA81F101F01F0104FA01F21042C2
:10122000E0D1B9F1000F04D05548016821F0805198
:101230000160786AE8B3DFF84891A9F11C09D9F890
:101240000010C1F38101032976D002284FF080718C
:101250004FF0007A58460BD091FAA1F1B1FA81F122
:1012600048F82100FFF7DCFAB046074656466DE025
:101270004FF0807191FAA1F1B1FA81F18A004249EF
:101280005050FFF7CDFAB3468046564606E000BF01
:10129000FFF7C6FAA0EB0800022854D896FAA6F089
:1012A000B0FA80F040F02000400903D0DBF80000E5
:1012B00001E061E0286896FAA6F1B1FA81F101F047
:1012C0001F0104FA01F10842E2D1D7E90A103A6B92
:1012D000D9F80030014323F47D031A431143C9F8C0
:1012E00000104FF0807090FAA0F0B0FA80F000E0AB
:1012F00029E0810024480C50FFF792FA074604E0E9
:10130000FFF78EFAC01B02281DD896FAA6F0B0FA95
:1013100080F040F02000400902D0DBF8000000E03F
:10132000286896FAA6F1B1FA81F101F01F0104FADA
:1013300001F10842E4D01FE020E000BFFFF770FA9F
:10134000C01B022802D90320BDE8F88F96FAA6F048
:10135000B0FA80F040F02000400902D0D8F8000038
:1013600000E0286896FAA6F1B1FA81F101F01F01B8
:1013700004FA01F10842E1D10020E5E70120E3E7AA
:101380002438024000700040000047424FF0E02146
:101390000428086903D020F004000861704740F079
:1013A0000400FAE7704710B5401EB0F1807F01D30A
:1013B000012010BD4FF0E02460610F21601700F0A4
:1013C000CDF80020A06107202061002010BD10B5DD
:1013D000FFF7E8FF10BD70B5040004D094F83900A1
:1013E000002510B106E0012070BD84F83850204679
:1013F00000F020F8022084F839002068C16821F448
:101400000051C160204600F067F92068016921F4AD
:10141000904101612068416921F02A014161206801
:10142000C16841F40051C160E563012084F83900CE
:10143000002070BD00B500680E4987B0884217D102
:101440000D48016841F4804101600068694600F47C
:10145000804005904FF4C060009002200190012070
:10146000029003200390072004900448FFF700F93E
:1014700007B000BD003801402038024000000240A3
:10148000FEE700003EB5154813490024C0E90014EA
:101490008460C460046144618461C46101250462A4
:1014A000C0E909451021C462C0E90D14C463FEF708
:1014B00055FF18B14B210AA000F05FFACDE90045B5
:1014C000694606480294FEF797FE002803D055218E
:1014D00003A000F052FA3EBD002401400C000020A1
:1014E0002E2E2F5372632F6164632E630000000061
:1014F000054808B5016841F001010160006800F08D
:101500000100009008BD00001C3802400D4810B5D5
:101510000B4901604FF4E1314160002181600C22F0
:10152000C160C0E904128161C161FFF754FF002866
:1015300005D0BDE81040422103A000F01EBA10BD46
:1015400000380140600000202E2E2F5372632F754B
:10155000736172742E630000FEE770470907090E7D
:10156000002806DA00F00F0000F1E02080F8141DDA
:10157000704700F1E02080F80014704770470000C9
:1015800038B51C49002309681B4A11F0F00F23D11C
:1015900018491C310C68E500184C03D5216801F48A
:1015A000C0540EE00D6845F080550D600D6805F0E3
:1015B0008055009524680D6804F4C05425F08055CA
:1015C0000D60B4F5C05F07D1B0F5404F04D110688D
:1015D000012340F004001060106820F0010018435F
:1015E0001060106800F00100984201D0012038BD61
:1015F000002038BD08380240003C02400070004026
:10160000704710B5FFF712F9BDE81040FFF7DFBED5
:101610001C4810B5016892B021F4C05141F400613A
:1016200001601220009001201021CDE90301002467
:10163000CDE906044FF42040CDE908046846FFF7E1
:10164000FDFA00B1FEE70F20CDE90D040F941094D0
:1016500000210DA81194FFF78BF900B1FEE7FFF709
:1016600071FA4FF47A71B0FBF1F0FFF79CFE0420A1
:10167000FFF78CFE00221146501EFFF747F912B00B
:1016800010BD0000007000400F48016841F48071F7
:1016900001600D4908310A680C4B1A400A60026863
:1016A0000B4B1A400260026822F480220260086834
:1016B00020F47D0008600020091D086005494FF0F6
:1016C0000060086070470000003802400CC0FF88CE
:1016D000FEFFFEEE08ED00E02DE9F0410446006853
:1016E0000169E26821F44051114301612169A06858
:1016F000E26908436169114308432168CA6849F2F5
:101700000C639A430243CA6020684169A26921F4CC
:10171000407111434161E1696425B1F5004F95487D
:1017200021684FF032083DD081427AD1FFF728FA84
:1017300000EBC00101EB001061688900B0FBF1F61D
:10174000FFF71EFA00EBC00101EB00106168890091
:10175000B0FBF1F0B0FBF5F06FF01801484306EB79
:10176000800108EB0110B0FBF5F000F0F006FFF788
:1017700007FA00EBC00101EB001061688900B0FBC3
:10178000F1F0B0FBF5F006EB0016FFF7F9F900EB0E
:10179000C00101EB001061688900B0FBF1F7FFF7B1
:1017A000EFF9D0E081423DD1FFF7EAF900EBC0014B
:1017B00001EB001061684900B0FBF1F0B0FBF5F0FF
:1017C0000601FFF7DDF900EBC00101EB00106168D5
:1017D0004900B0FBF1F7FFF7D3F900EBC00101EBD3
:1017E000001061684900B0FBF1F0B0FBF5F06FF05C
:1017F0001801484307EB800108EBC100B0FBF5F08E
:1018000000F0F80006EB4006FFF7BAF900EBC00164
:1018100001EB001061684900B0FBF1F7FFF7B0F988
:101820003CE055E0FFF794F900EBC00101EB00103C
:1018300061684900B0FBF1F0B0FBF5F00601FFF77D
:1018400087F900EBC00101EB001061684900B0FBB3
:10185000F1F7FFF77DF900EBC00101EB00106168C3
:101860004900B0FBF1F0B0FBF5F06FF01801484310
:1018700007EB800108EBC100B0FBF5F000F0F800C9
:1018800006EB4006FFF764F900EBC00101EB001026
:1018900061684900B0FBF1F7FFF75AF900EBC001AE
:1018A00001EB001061684900B0FBF1F0B0FBF5F00E
:1018B0006FF01801484307EB800108EBC100B0FB53
:1018C000F5F000F00700216830448860BDE8F08141
:1018D000FFF73EF900EBC00101EB001061688900E1
:1018E000B0FBF1F6FFF734F900EBC00101EB00109B
:1018F00061688900B0FBF1F0B0FBF5F06FF0180102
:10190000484306EB800108EB0110B0FBF5F000F056
:10191000F006FFF71DF900EBC00101EB0010616854
:101920008900B0FBF1F0B0FBF5F006EB0016FFF715
:101930000FF900EBC00101EB001061688900B0FBFA
:10194000F1F7FFF705F900EBC00101EB001061684A
:101950008900B0FBF1F0B0FBF5F06FF018014843DF
:1019600007EB800108EB0110B0FBF5F000F00F0071
:10197000A9E7000000380140FEE7FEE702E008C8E2
:10198000121F08C1002AFAD170477047002001E0F9
:1019900001C1121F002AFBD170470000FEF74EFF65
:1019A000FFF736FEFFF7A4FDFFF7B0FDFFF76AFD76
:1019B000074C0848FEF715FE64210648FEF7BEFDF9
:1019C0000448FEF7C7FC20806420FEF745FEF0E7E0
:1019D000000000200C000020030406080C10182052
:1019E00030000000000000000001020304060708A8
:1019F0000900000000010203040000001C1A000896
:101A0000000000200C0000007C190008281A0008C3
:101A10000C000020940400008C1900080000000055
:081A20000000000068FF1F0038
:0400000508000125C9
:00000001FF
